{
  "contractName": "Campaign",
  "abi": [
    {
      "inputs": [
        {
          "internalType": "string",
          "name": "_name",
          "type": "string"
        },
        {
          "internalType": "uint256",
          "name": "_goalAmt",
          "type": "uint256"
        },
        {
          "internalType": "address",
          "name": "proposer",
          "type": "address"
        },
        {
          "internalType": "contract MyTokenFactory",
          "name": "myTokenFactoryAddr",
          "type": "address"
        }
      ],
      "stateMutability": "payable",
      "type": "constructor"
    },
    {
      "inputs": [],
      "name": "campaignName",
      "outputs": [
        {
          "internalType": "string",
          "name": "",
          "type": "string"
        }
      ],
      "stateMutability": "view",
      "type": "function"
    },
    {
      "inputs": [],
      "name": "campaignToken",
      "outputs": [
        {
          "internalType": "contract MyToken",
          "name": "",
          "type": "address"
        }
      ],
      "stateMutability": "view",
      "type": "function"
    },
    {
      "inputs": [],
      "name": "endTime",
      "outputs": [
        {
          "internalType": "uint256",
          "name": "",
          "type": "uint256"
        }
      ],
      "stateMutability": "view",
      "type": "function"
    },
    {
      "inputs": [],
      "name": "goalAmt",
      "outputs": [
        {
          "internalType": "uint256",
          "name": "",
          "type": "uint256"
        }
      ],
      "stateMutability": "view",
      "type": "function"
    },
    {
      "inputs": [],
      "name": "isOpen",
      "outputs": [
        {
          "internalType": "bool",
          "name": "",
          "type": "bool"
        }
      ],
      "stateMutability": "view",
      "type": "function"
    },
    {
      "inputs": [],
      "name": "owner",
      "outputs": [
        {
          "internalType": "address",
          "name": "",
          "type": "address"
        }
      ],
      "stateMutability": "view",
      "type": "function"
    },
    {
      "inputs": [
        {
          "internalType": "address",
          "name": "",
          "type": "address"
        }
      ],
      "name": "pendingWithdrawals",
      "outputs": [
        {
          "internalType": "uint256",
          "name": "",
          "type": "uint256"
        }
      ],
      "stateMutability": "view",
      "type": "function"
    },
    {
      "inputs": [],
      "name": "pledge",
      "outputs": [],
      "stateMutability": "payable",
      "type": "function"
    },
    {
      "inputs": [],
      "name": "withdraw",
      "outputs": [],
      "stateMutability": "nonpayable",
      "type": "function"
    },
    {
      "inputs": [],
      "name": "unpledge",
      "outputs": [],
      "stateMutability": "nonpayable",
      "type": "function"
    },
    {
      "inputs": [
        {
          "internalType": "uint256",
          "name": "amt",
          "type": "uint256"
        },
        {
          "internalType": "string",
          "name": "message",
          "type": "string"
        }
      ],
      "name": "initiateWithdrawProposal",
      "outputs": [],
      "stateMutability": "nonpayable",
      "type": "function"
    },
    {
      "inputs": [
        {
          "internalType": "uint256",
          "name": "ballotIndex",
          "type": "uint256"
        }
      ],
      "name": "withdrawFromProposal",
      "outputs": [],
      "stateMutability": "nonpayable",
      "type": "function"
    },
    {
      "inputs": [],
      "name": "closeCampaign",
      "outputs": [],
      "stateMutability": "nonpayable",
      "type": "function"
    },
    {
      "inputs": [
        {
          "internalType": "uint256",
          "name": "ballotIndex",
          "type": "uint256"
        }
      ],
      "name": "getProposalAmount",
      "outputs": [
        {
          "internalType": "uint256",
          "name": "",
          "type": "uint256"
        }
      ],
      "stateMutability": "view",
      "type": "function"
    }
  ],
  "bytecode": "0x608060405260405162001ef538038062001ef58339818101604052810190620000299190620003ba565b80600460006101000a81548173ffffffffffffffffffffffffffffffffffffffff021916908373ffffffffffffffffffffffffffffffffffffffff16021790555061012c426200007a9190620004f9565b600381905550836002908051906020019062000098929190620001fe565b5081600160006101000a81548173ffffffffffffffffffffffffffffffffffffffff021916908373ffffffffffffffffffffffffffffffffffffffff16021790555082600081905550600460009054906101000a900473ffffffffffffffffffffffffffffffffffffffff1673ffffffffffffffffffffffffffffffffffffffff16639c2dfa0b30620f42406040518363ffffffff1660e01b8152600401620001439291906200046d565b602060405180830381600087803b1580156200015e57600080fd5b505af115801562000173573d6000803e3d6000fd5b505050506040513d601f19601f8201168201806040525081019062000199919062000388565b600560006101000a81548173ffffffffffffffffffffffffffffffffffffffff021916908373ffffffffffffffffffffffffffffffffffffffff1602179055506001600560146101000a81548160ff021916908315150217905550505050506200078c565b8280546200020c9062000606565b90600052602060002090601f0160209004810192826200023057600085556200027c565b82601f106200024b57805160ff19168380011785556200027c565b828001600101855582156200027c579182015b828111156200027b5782518255916020019190600101906200025e565b5b5090506200028b91906200028f565b5090565b5b80821115620002aa57600081600090555060010162000290565b5090565b6000620002c5620002bf84620004c3565b6200049a565b905082815260208101848484011115620002e457620002e362000704565b5b620002f1848285620005d0565b509392505050565b6000815190506200030a8162000724565b92915050565b60008151905062000321816200073e565b92915050565b600081519050620003388162000758565b92915050565b600082601f830112620003565762000355620006ff565b5b815162000368848260208601620002ae565b91505092915050565b600081519050620003828162000772565b92915050565b600060208284031215620003a157620003a06200070e565b5b6000620003b18482850162000327565b91505092915050565b60008060008060808587031215620003d757620003d66200070e565b5b600085015167ffffffffffffffff811115620003f857620003f762000709565b5b62000406878288016200033e565b9450506020620004198782880162000371565b93505060406200042c87828801620002f9565b92505060606200043f8782880162000310565b91505092959194509250565b620004568162000556565b82525050565b6200046781620005bc565b82525050565b60006040820190506200048460008301856200044b565b6200049360208301846200045c565b9392505050565b6000620004a6620004b9565b9050620004b482826200063c565b919050565b6000604051905090565b600067ffffffffffffffff821115620004e157620004e0620006d0565b5b620004ec8262000713565b9050602081019050919050565b60006200050682620005b2565b91506200051383620005b2565b9250827fffffffffffffffffffffffffffffffffffffffffffffffffffffffffffffffff038211156200054b576200054a62000672565b5b828201905092915050565b6000620005638262000592565b9050919050565b6000620005778262000556565b9050919050565b60006200058b8262000556565b9050919050565b600073ffffffffffffffffffffffffffffffffffffffff82169050919050565b6000819050919050565b6000620005c982620005b2565b9050919050565b60005b83811015620005f0578082015181840152602081019050620005d3565b8381111562000600576000848401525b50505050565b600060028204905060018216806200061f57607f821691505b60208210811415620006365762000635620006a1565b5b50919050565b620006478262000713565b810181811067ffffffffffffffff82111715620006695762000668620006d0565b5b80604052505050565b7f4e487b7100000000000000000000000000000000000000000000000000000000600052601160045260246000fd5b7f4e487b7100000000000000000000000000000000000000000000000000000000600052602260045260246000fd5b7f4e487b7100000000000000000000000000000000000000000000000000000000600052604160045260246000fd5b600080fd5b600080fd5b600080fd5b600080fd5b6000601f19601f8301169050919050565b6200072f8162000556565b81146200073b57600080fd5b50565b62000749816200056a565b81146200075557600080fd5b50565b62000763816200057e565b81146200076f57600080fd5b50565b6200077d81620005b2565b81146200078957600080fd5b50565b611759806200079c6000396000f3fe6080604052600436106100dd5760003560e01c806347535d7b1161007f5780638f91eeb4116100595780638f91eeb4146102575780639089c4a514610280578063d7557f18146102ab578063f3f43703146102c2576100dd565b806347535d7b146101f757806388ffe867146102225780638da5cb5b1461022c576100dd565b80632f94dfa3116100bb5780632f94dfa3146101755780633197cbb61461019e5780633ccfd60b146101c95780633edd2d20146101e0576100dd565b80630724fda9146100e2578063208152db1461010d5780632b842d4214610138575b600080fd5b3480156100ee57600080fd5b506100f76102ff565b604051610104919061125a565b60405180910390f35b34801561011957600080fd5b5061012261038d565b60405161012f91906112fc565b60405180910390f35b34801561014457600080fd5b5061015f600480360381019061015a9190610ff2565b610393565b60405161016c91906112fc565b60405180910390f35b34801561018157600080fd5b5061019c60048036038101906101979190610ff2565b6103b0565b005b3480156101aa57600080fd5b506101b3610588565b6040516101c091906112fc565b60405180910390f35b3480156101d557600080fd5b506101de61058e565b005b3480156101ec57600080fd5b506101f5610661565b005b34801561020357600080fd5b5061020c61093c565b6040516102199190611224565b60405180910390f35b61022a61094f565b005b34801561023857600080fd5b50610241610b82565b60405161024e91906111a9565b60405180910390f35b34801561026357600080fd5b5061027e6004803603810190610279919061104c565b610ba8565b005b34801561028c57600080fd5b50610295610d33565b6040516102a2919061123f565b60405180910390f35b3480156102b757600080fd5b506102c0610d59565b005b3480156102ce57600080fd5b506102e960048036038101906102e49190610f98565b610e90565b6040516102f691906112fc565b60405180910390f35b6002805461030c906114f6565b80601f0160208091040260200160405190810160405280929190818152602001828054610338906114f6565b80156103855780601f1061035a57610100808354040283529160200191610385565b820191906000526020600020905b81548152906001019060200180831161036857829003601f168201915b505050505081565b60005481565b600060066000838152602001908152602001600020549050919050565b600160009054906101000a900473ffffffffffffffffffffffffffffffffffffffff1673ffffffffffffffffffffffffffffffffffffffff163373ffffffffffffffffffffffffffffffffffffffff1614610440576040517f08c379a0000000000000000000000000000000000000000000000000000000008152600401610437906112dc565b60405180910390fd5b600560009054906101000a900473ffffffffffffffffffffffffffffffffffffffff1673ffffffffffffffffffffffffffffffffffffffff1663d045f1e4826040518263ffffffff1660e01b815260040161049b91906112fc565b600060405180830381600087803b1580156104b557600080fd5b505af11580156104c9573d6000803e3d6000fd5b5050505060006006600083815260200190815260200160002054116104ed57600080fd5b600060066000838152602001908152602001600020549050600060066000848152602001908152602001600020819055508060076000600160009054906101000a900473ffffffffffffffffffffffffffffffffffffffff1673ffffffffffffffffffffffffffffffffffffffff1673ffffffffffffffffffffffffffffffffffffffff168152602001908152602001600020819055505050565b60035481565b6000600760003373ffffffffffffffffffffffffffffffffffffffff1673ffffffffffffffffffffffffffffffffffffffff1681526020019081526020016000205490506000600760003373ffffffffffffffffffffffffffffffffffffffff1673ffffffffffffffffffffffffffffffffffffffff168152602001908152602001600020819055503373ffffffffffffffffffffffffffffffffffffffff166108fc829081150290604051600060405180830381858888f1935050505015801561065d573d6000803e3d6000fd5b5050565b600560149054906101000a900460ff1661067a57600080fd5b6003544211156106c95760005447106106c8576040517f08c379a00000000000000000000000000000000000000000000000000000000081526004016106bf906112bc565b60405180910390fd5b5b6000600560009054906101000a900473ffffffffffffffffffffffffffffffffffffffff1673ffffffffffffffffffffffffffffffffffffffff166370a08231336040518263ffffffff1660e01b815260040161072691906111a9565b60206040518083038186803b15801561073e57600080fd5b505afa158015610752573d6000803e3d6000fd5b505050506040513d601f19601f82011682018060405250810190610776919061101f565b9050600560009054906101000a900473ffffffffffffffffffffffffffffffffffffffff1673ffffffffffffffffffffffffffffffffffffffff166323b872dd3330846040518463ffffffff1660e01b81526004016107d7939291906111c4565b602060405180830381600087803b1580156107f157600080fd5b505af1158015610805573d6000803e3d6000fd5b505050506040513d601f19601f820116820180604052508101906108299190610fc5565b5060006108f2600560009054906101000a900473ffffffffffffffffffffffffffffffffffffffff1673ffffffffffffffffffffffffffffffffffffffff166318160ddd6040518163ffffffff1660e01b815260040160206040518083038186803b15801561089757600080fd5b505afa1580156108ab573d6000803e3d6000fd5b505050506040513d601f19601f820116820180604052508101906108cf919061101f565b6108e460005485610ea890919063ffffffff16565b610ebe90919063ffffffff16565b905080600760003373ffffffffffffffffffffffffffffffffffffffff1673ffffffffffffffffffffffffffffffffffffffff168152602001908152602001600020819055505050565b600560149054906101000a900460ff1681565b6003544210610993576040517f08c379a000000000000000000000000000000000000000000000000000000000815260040161098a906112bc565b60405180910390fd5b600080544711156109af57600054476109ac9190611414565b90505b600081346109bd9190611414565b90506000610a87600054610a79600560009054906101000a900473ffffffffffffffffffffffffffffffffffffffff1673ffffffffffffffffffffffffffffffffffffffff166318160ddd6040518163ffffffff1660e01b815260040160206040518083038186803b158015610a3257600080fd5b505afa158015610a46573d6000803e3d6000fd5b505050506040513d601f19601f82011682018060405250810190610a6a919061101f565b85610ea890919063ffffffff16565b610ebe90919063ffffffff16565b9050600560009054906101000a900473ffffffffffffffffffffffffffffffffffffffff1673ffffffffffffffffffffffffffffffffffffffff1663a9059cbb33836040518363ffffffff1660e01b8152600401610ae69291906111fb565b602060405180830381600087803b158015610b0057600080fd5b505af1158015610b14573d6000803e3d6000fd5b505050506040513d601f19601f82011682018060405250810190610b389190610fc5565b5082600760003373ffffffffffffffffffffffffffffffffffffffff1673ffffffffffffffffffffffffffffffffffffffff16815260200190815260200160002081905550505050565b600160009054906101000a900473ffffffffffffffffffffffffffffffffffffffff1681565b600160009054906101000a900473ffffffffffffffffffffffffffffffffffffffff1673ffffffffffffffffffffffffffffffffffffffff163373ffffffffffffffffffffffffffffffffffffffff1614610c38576040517f08c379a0000000000000000000000000000000000000000000000000000000008152600401610c2f906112dc565b60405180910390fd5b60001515600560149054906101000a900460ff16151514610c5857600080fd5b47821115610c6557600080fd5b6000600560009054906101000a900473ffffffffffffffffffffffffffffffffffffffff1673ffffffffffffffffffffffffffffffffffffffff1663326856a0836040518263ffffffff1660e01b8152600401610cc2919061125a565b602060405180830381600087803b158015610cdc57600080fd5b505af1158015610cf0573d6000803e3d6000fd5b505050506040513d601f19601f82011682018060405250810190610d14919061101f565b9050826006600083815260200190815260200160002081905550505050565b600560009054906101000a900473ffffffffffffffffffffffffffffffffffffffff1681565b600160009054906101000a900473ffffffffffffffffffffffffffffffffffffffff1673ffffffffffffffffffffffffffffffffffffffff163373ffffffffffffffffffffffffffffffffffffffff1614610de9576040517f08c379a0000000000000000000000000000000000000000000000000000000008152600401610de0906112dc565b60405180910390fd5b600354421015610e2e576040517f08c379a0000000000000000000000000000000000000000000000000000000008152600401610e259061129c565b60405180910390fd5b600054471015610e73576040517f08c379a0000000000000000000000000000000000000000000000000000000008152600401610e6a9061127c565b60405180910390fd5b6000600560146101000a81548160ff021916908315150217905550565b60076020528060005260406000206000915090505481565b60008183610eb691906113ba565b905092915050565b60008183610ecc9190611389565b905092915050565b6000610ee7610ee28461133c565b611317565b905082815260208101848484011115610f0357610f0261161a565b5b610f0e8482856114b4565b509392505050565b600081359050610f25816116de565b92915050565b600081519050610f3a816116f5565b92915050565b600082601f830112610f5557610f54611615565b5b8135610f65848260208601610ed4565b91505092915050565b600081359050610f7d8161170c565b92915050565b600081519050610f928161170c565b92915050565b600060208284031215610fae57610fad611624565b5b6000610fbc84828501610f16565b91505092915050565b600060208284031215610fdb57610fda611624565b5b6000610fe984828501610f2b565b91505092915050565b60006020828403121561100857611007611624565b5b600061101684828501610f6e565b91505092915050565b60006020828403121561103557611034611624565b5b600061104384828501610f83565b91505092915050565b6000806040838503121561106357611062611624565b5b600061107185828601610f6e565b925050602083013567ffffffffffffffff8111156110925761109161161f565b5b61109e85828601610f40565b9150509250929050565b6110b181611448565b82525050565b6110c08161145a565b82525050565b6110cf81611490565b82525050565b60006110e08261136d565b6110ea8185611378565b93506110fa8185602086016114c3565b61110381611629565b840191505092915050565b600061111b600883611378565b91506111268261163a565b602082019050919050565b600061113e600b83611378565b915061114982611663565b602082019050919050565b6000611161600f83611378565b915061116c8261168c565b602082019050919050565b6000611184600983611378565b915061118f826116b5565b602082019050919050565b6111a381611486565b82525050565b60006020820190506111be60008301846110a8565b92915050565b60006060820190506111d960008301866110a8565b6111e660208301856110a8565b6111f3604083018461119a565b949350505050565b600060408201905061121060008301856110a8565b61121d602083018461119a565b9392505050565b600060208201905061123960008301846110b7565b92915050565b600060208201905061125460008301846110c6565b92915050565b6000602082019050818103600083015261127481846110d5565b905092915050565b600060208201905081810360008301526112958161110e565b9050919050565b600060208201905081810360008301526112b581611131565b9050919050565b600060208201905081810360008301526112d581611154565b9050919050565b600060208201905081810360008301526112f581611177565b9050919050565b6000602082019050611311600083018461119a565b92915050565b6000611321611332565b905061132d8282611528565b919050565b6000604051905090565b600067ffffffffffffffff821115611357576113566115e6565b5b61136082611629565b9050602081019050919050565b600081519050919050565b600082825260208201905092915050565b600061139482611486565b915061139f83611486565b9250826113af576113ae611588565b5b828204905092915050565b60006113c582611486565b91506113d083611486565b9250817fffffffffffffffffffffffffffffffffffffffffffffffffffffffffffffffff048311821515161561140957611408611559565b5b828202905092915050565b600061141f82611486565b915061142a83611486565b92508282101561143d5761143c611559565b5b828203905092915050565b600061145382611466565b9050919050565b60008115159050919050565b600073ffffffffffffffffffffffffffffffffffffffff82169050919050565b6000819050919050565b600061149b826114a2565b9050919050565b60006114ad82611466565b9050919050565b82818337600083830152505050565b60005b838110156114e15780820151818401526020810190506114c6565b838111156114f0576000848401525b50505050565b6000600282049050600182168061150e57607f821691505b60208210811415611522576115216115b7565b5b50919050565b61153182611629565b810181811067ffffffffffffffff821117156115505761154f6115e6565b5b80604052505050565b7f4e487b7100000000000000000000000000000000000000000000000000000000600052601160045260246000fd5b7f4e487b7100000000000000000000000000000000000000000000000000000000600052601260045260246000fd5b7f4e487b7100000000000000000000000000000000000000000000000000000000600052602260045260246000fd5b7f4e487b7100000000000000000000000000000000000000000000000000000000600052604160045260246000fd5b600080fd5b600080fd5b600080fd5b600080fd5b6000601f19601f8301169050919050565b7f6e6f7420676f616c000000000000000000000000000000000000000000000000600082015250565b7f6e6f742065787069726564000000000000000000000000000000000000000000600082015250565b7f63616d706169676e20636c6f7365640000000000000000000000000000000000600082015250565b7f6e6f74206f776e65720000000000000000000000000000000000000000000000600082015250565b6116e781611448565b81146116f257600080fd5b50565b6116fe8161145a565b811461170957600080fd5b50565b61171581611486565b811461172057600080fd5b5056fea26469706673582212206cc1273c537b8379aeec644902ab327926b7c08598a62dc30e21f30d490b221864736f6c63430008060033",
  "immutableReferences": {},
  "source": "// SPDX-License-Identifier: MIT\r\npragma solidity 0.8.6;\r\nimport \"./MyToken.sol\";\r\nimport \"./MyTokenVote.sol\";\r\nimport \"./TokenVote1202.sol\";\r\n\r\nimport \"@openzeppelin/contracts/utils/math/SafeMath.sol\";\r\n\r\ncontract Crowdfund {\r\n    Campaign[] public campaigns;\r\n    MyTokenFactory myTokenFactory;\r\n\r\n    constructor(address myTokenFactoryAddr) {\r\n        myTokenFactory = MyTokenFactory(myTokenFactoryAddr);\r\n    }\r\n\r\n    function createCampaign(string memory _name, uint256 _goalAmt)\r\n        public\r\n        returns (address, uint256)\r\n    {\r\n        Campaign campaign = new Campaign(\r\n            _name,\r\n            _goalAmt,\r\n            msg.sender,\r\n            myTokenFactory\r\n        );\r\n        campaigns.push(campaign);\r\n        return (address(campaign), campaigns.length);\r\n    }\r\n\r\n    function getNumberOfCampaigns() public view returns (uint256) {\r\n        return campaigns.length;\r\n    }\r\n}\r\n\r\ncontract Campaign {\r\n    using SafeMath for uint256;\r\n    uint256 public goalAmt;\r\n    address public owner;\r\n    string public campaignName;\r\n    uint256 public endTime;\r\n    MyTokenFactory myTokenFactory;\r\n    MyToken public campaignToken;\r\n    bool public isOpen;\r\n\r\n    mapping(uint256 => uint256) withdrawBallotAmount;\r\n    mapping(address => uint256) public pendingWithdrawals; /* in wei */\r\n\r\n    constructor(\r\n        string memory _name,\r\n        uint256 _goalAmt,\r\n        address proposer,\r\n        MyTokenFactory myTokenFactoryAddr\r\n    ) payable {\r\n        myTokenFactory = MyTokenFactory(myTokenFactoryAddr);\r\n        endTime = block.timestamp + 300 seconds;\r\n        campaignName = _name;\r\n        owner = proposer;\r\n        goalAmt = _goalAmt;\r\n        campaignToken = myTokenFactory.createMyToken(address(this), 1000000);\r\n        isOpen = true;\r\n    }\r\n\r\n    function pledge() public payable {\r\n        require(block.timestamp < endTime, \"campaign closed\");\r\n        uint256 refundAmt = 0;\r\n        if (address(this).balance > goalAmt) {\r\n            refundAmt = address(this).balance - goalAmt;\r\n        }\r\n        uint256 pledgeAmt = msg.value - refundAmt;\r\n        uint256 tokensToSend = pledgeAmt.mul(campaignToken.totalSupply()).div(\r\n            goalAmt\r\n        );\r\n\r\n        campaignToken.transfer(msg.sender, tokensToSend);\r\n        pendingWithdrawals[msg.sender] = refundAmt;\r\n    }\r\n\r\n    function withdraw() public {\r\n        uint256 amount = pendingWithdrawals[msg.sender];\r\n        pendingWithdrawals[msg.sender] = 0;\r\n        payable(msg.sender).transfer(amount);\r\n    }\r\n\r\n    function unpledge() public {\r\n        require(isOpen);\r\n        if (block.timestamp > endTime) {\r\n            require(address(this).balance < goalAmt, 'campaign closed');\r\n        }\r\n        uint256 returnedTokens = campaignToken.balanceOf(msg.sender);\r\n        campaignToken.transferFrom(msg.sender, address(this), returnedTokens);\r\n        uint256 refundAmt = returnedTokens.mul(goalAmt).div(\r\n            campaignToken.totalSupply()\r\n        );\r\n        pendingWithdrawals[msg.sender] = refundAmt;\r\n    }\r\n\r\n    function initiateWithdrawProposal(uint256 amt, string memory message)\r\n        public\r\n        onlyOwner\r\n    {\r\n        require(isOpen == false);\r\n        require(amt <= address(this).balance);\r\n        uint256 ballotIndex = campaignToken.createYesNoVote(message);\r\n        withdrawBallotAmount[ballotIndex] = amt;\r\n    }\r\n\r\n    function withdrawFromProposal(uint256 ballotIndex) public onlyOwner {\r\n        // TokenVote1202 ballot = campaignToken.ballots(ballotIndex);\r\n        // require(ballot.winningOption() == 2);\r\n        campaignToken.closeBallot(ballotIndex);\r\n        require(withdrawBallotAmount[ballotIndex] > 0);\r\n        uint256 availableToWithdraw = withdrawBallotAmount[ballotIndex];\r\n        withdrawBallotAmount[ballotIndex] = 0;\r\n        pendingWithdrawals[owner] = availableToWithdraw;\r\n    }\r\n\r\n    function closeCampaign() public onlyOwner {\r\n        require(block.timestamp >= endTime, \"not expired\");\r\n        require(address(this).balance >= goalAmt, \"not goal\");\r\n        isOpen = false;\r\n    }\r\n\r\n    function getProposalAmount(uint256 ballotIndex)\r\n        public\r\n        view\r\n        returns (uint256)\r\n    {\r\n        return withdrawBallotAmount[ballotIndex];\r\n    }\r\n\r\n    modifier requireSucessfulCampaign() {\r\n        require(block.timestamp >= endTime && !isOpen);\r\n        _;\r\n    }\r\n\r\n    modifier onlyOwner() {\r\n        require(msg.sender == owner, \"not owner\");\r\n        _;\r\n    }\r\n}\r\n",
  "sourcePath": "G:/Blockchain/KindlingBlocks/erc20/contracts/Crowdfund.sol",
  "compiler": {
    "name": "solc",
    "version": "0.8.6+commit.11564f7e.Emscripten.clang"
  },
  "schemaVersion": "3.4.1",
  "updatedAt": "2021-07-28T09:05:39.257Z",
  "devdoc": {
    "kind": "dev",
    "methods": {},
    "version": 1
  },
  "userdoc": {
    "kind": "user",
    "methods": {},
    "version": 1
  }
}