{
  "contractName": "Crowdfund",
  "abi": [
    {
      "inputs": [
        {
          "internalType": "address",
          "name": "myTokenFactoryAddr",
          "type": "address"
        }
      ],
      "stateMutability": "nonpayable",
      "type": "constructor"
    },
    {
      "inputs": [
        {
          "internalType": "uint256",
          "name": "",
          "type": "uint256"
        }
      ],
      "name": "campaigns",
      "outputs": [
        {
          "internalType": "contract Campaign",
          "name": "",
          "type": "address"
        }
      ],
      "stateMutability": "view",
      "type": "function",
      "constant": true
    },
    {
      "inputs": [
        {
          "internalType": "string",
          "name": "_name",
          "type": "string"
        },
        {
          "internalType": "uint256",
          "name": "_goalAmt",
          "type": "uint256"
        }
      ],
      "name": "createCampaign",
      "outputs": [
        {
          "internalType": "address",
          "name": "",
          "type": "address"
        },
        {
          "internalType": "uint256",
          "name": "",
          "type": "uint256"
        }
      ],
      "stateMutability": "nonpayable",
      "type": "function"
    },
    {
      "inputs": [],
      "name": "getNumberOfCampaigns",
      "outputs": [
        {
          "internalType": "uint256",
          "name": "",
          "type": "uint256"
        }
      ],
      "stateMutability": "view",
      "type": "function",
      "constant": true
    }
  ],
  "bytecode": "0x608060405234801561001057600080fd5b5060405161267e38038061267e8339818101604052810190610032919061008e565b80600160006101000a81548173ffffffffffffffffffffffffffffffffffffffff021916908373ffffffffffffffffffffffffffffffffffffffff16021790555050610109565b600081519050610088816100f2565b92915050565b6000602082840312156100a4576100a36100ed565b5b60006100b284828501610079565b91505092915050565b60006100c6826100cd565b9050919050565b600073ffffffffffffffffffffffffffffffffffffffff82169050919050565b600080fd5b6100fb816100bb565b811461010657600080fd5b50565b612566806101186000396000f3fe60806040523480156200001157600080fd5b5060043610620000465760003560e01c8063141961bc146200004b578063e4aafc2c1462000081578063f102a67c14620000a3575b600080fd5b6200006960048036038101906200006391906200030d565b620000da565b604051620000789190620003f1565b60405180910390f35b6200008b6200011a565b6040516200009a919062000462565b60405180910390f35b620000c16004803603810190620000bb9190620002a7565b62000126565b604051620000d1929190620003c4565b60405180910390f35b60008181548110620000eb57600080fd5b906000526020600020016000915054906101000a900473ffffffffffffffffffffffffffffffffffffffff1681565b60008080549050905090565b6000806000848433600160009054906101000a900473ffffffffffffffffffffffffffffffffffffffff166040516200015f9062000204565b6200016e94939291906200040e565b604051809103906000f0801580156200018b573d6000803e3d6000fd5b5090506000819080600181540180825580915050600190039060005260206000200160009091909190916101000a81548173ffffffffffffffffffffffffffffffffffffffff021916908373ffffffffffffffffffffffffffffffffffffffff1602179055508060008054905092509250509250929050565b611ebf806200067283390190565b6000620002296200022384620004a8565b6200047f565b90508281526020810184848401111562000248576200024762000637565b5b6200025584828562000588565b509392505050565b600082601f83011262000275576200027462000632565b5b81356200028784826020860162000212565b91505092915050565b600081359050620002a18162000657565b92915050565b60008060408385031215620002c157620002c062000641565b5b600083013567ffffffffffffffff811115620002e257620002e16200063c565b5b620002f0858286016200025d565b9250506020620003038582860162000290565b9150509250929050565b60006020828403121562000326576200032562000641565b5b6000620003368482850162000290565b91505092915050565b6200034a81620004fa565b82525050565b6200035b8162000538565b82525050565b6200036c8162000560565b82525050565b60006200037f82620004de565b6200038b8185620004e9565b93506200039d81856020860162000597565b620003a88162000646565b840191505092915050565b620003be816200052e565b82525050565b6000604082019050620003db60008301856200033f565b620003ea6020830184620003b3565b9392505050565b600060208201905062000408600083018462000350565b92915050565b600060808201905081810360008301526200042a818762000372565b90506200043b6020830186620003b3565b6200044a60408301856200033f565b62000459606083018462000361565b95945050505050565b6000602082019050620004796000830184620003b3565b92915050565b60006200048b6200049e565b9050620004998282620005cd565b919050565b6000604051905090565b600067ffffffffffffffff821115620004c657620004c562000603565b5b620004d18262000646565b9050602081019050919050565b600081519050919050565b600082825260208201905092915050565b600062000507826200050e565b9050919050565b600073ffffffffffffffffffffffffffffffffffffffff82169050919050565b6000819050919050565b600062000545826200054c565b9050919050565b600062000559826200050e565b9050919050565b60006200056d8262000574565b9050919050565b600062000581826200050e565b9050919050565b82818337600083830152505050565b60005b83811015620005b75780820151818401526020810190506200059a565b83811115620005c7576000848401525b50505050565b620005d88262000646565b810181811067ffffffffffffffff82111715620005fa57620005f962000603565b5b80604052505050565b7f4e487b7100000000000000000000000000000000000000000000000000000000600052604160045260246000fd5b600080fd5b600080fd5b600080fd5b600080fd5b6000601f19601f8301169050919050565b62000662816200052e565b81146200066e57600080fd5b5056fe608060405260405162001ebf38038062001ebf8339818101604052810190620000299190620003ba565b80600460006101000a81548173ffffffffffffffffffffffffffffffffffffffff021916908373ffffffffffffffffffffffffffffffffffffffff16021790555061012c426200007a9190620004f9565b600381905550836002908051906020019062000098929190620001fe565b5081600160006101000a81548173ffffffffffffffffffffffffffffffffffffffff021916908373ffffffffffffffffffffffffffffffffffffffff16021790555082600081905550600460009054906101000a900473ffffffffffffffffffffffffffffffffffffffff1673ffffffffffffffffffffffffffffffffffffffff16639c2dfa0b30620f42406040518363ffffffff1660e01b8152600401620001439291906200046d565b602060405180830381600087803b1580156200015e57600080fd5b505af115801562000173573d6000803e3d6000fd5b505050506040513d601f19601f8201168201806040525081019062000199919062000388565b600560006101000a81548173ffffffffffffffffffffffffffffffffffffffff021916908373ffffffffffffffffffffffffffffffffffffffff1602179055506001600560146101000a81548160ff021916908315150217905550505050506200078c565b8280546200020c9062000606565b90600052602060002090601f0160209004810192826200023057600085556200027c565b82601f106200024b57805160ff19168380011785556200027c565b828001600101855582156200027c579182015b828111156200027b5782518255916020019190600101906200025e565b5b5090506200028b91906200028f565b5090565b5b80821115620002aa57600081600090555060010162000290565b5090565b6000620002c5620002bf84620004c3565b6200049a565b905082815260208101848484011115620002e457620002e362000704565b5b620002f1848285620005d0565b509392505050565b6000815190506200030a8162000724565b92915050565b60008151905062000321816200073e565b92915050565b600081519050620003388162000758565b92915050565b600082601f830112620003565762000355620006ff565b5b815162000368848260208601620002ae565b91505092915050565b600081519050620003828162000772565b92915050565b600060208284031215620003a157620003a06200070e565b5b6000620003b18482850162000327565b91505092915050565b60008060008060808587031215620003d757620003d66200070e565b5b600085015167ffffffffffffffff811115620003f857620003f762000709565b5b62000406878288016200033e565b9450506020620004198782880162000371565b93505060406200042c87828801620002f9565b92505060606200043f8782880162000310565b91505092959194509250565b620004568162000556565b82525050565b6200046781620005bc565b82525050565b60006040820190506200048460008301856200044b565b6200049360208301846200045c565b9392505050565b6000620004a6620004b9565b9050620004b482826200063c565b919050565b6000604051905090565b600067ffffffffffffffff821115620004e157620004e0620006d0565b5b620004ec8262000713565b9050602081019050919050565b60006200050682620005b2565b91506200051383620005b2565b9250827fffffffffffffffffffffffffffffffffffffffffffffffffffffffffffffffff038211156200054b576200054a62000672565b5b828201905092915050565b6000620005638262000592565b9050919050565b6000620005778262000556565b9050919050565b60006200058b8262000556565b9050919050565b600073ffffffffffffffffffffffffffffffffffffffff82169050919050565b6000819050919050565b6000620005c982620005b2565b9050919050565b60005b83811015620005f0578082015181840152602081019050620005d3565b8381111562000600576000848401525b50505050565b600060028204905060018216806200061f57607f821691505b60208210811415620006365762000635620006a1565b5b50919050565b620006478262000713565b810181811067ffffffffffffffff82111715620006695762000668620006d0565b5b80604052505050565b7f4e487b7100000000000000000000000000000000000000000000000000000000600052601160045260246000fd5b7f4e487b7100000000000000000000000000000000000000000000000000000000600052602260045260246000fd5b7f4e487b7100000000000000000000000000000000000000000000000000000000600052604160045260246000fd5b600080fd5b600080fd5b600080fd5b600080fd5b6000601f19601f8301169050919050565b6200072f8162000556565b81146200073b57600080fd5b50565b62000749816200056a565b81146200075557600080fd5b50565b62000763816200057e565b81146200076f57600080fd5b50565b6200077d81620005b2565b81146200078957600080fd5b50565b611723806200079c6000396000f3fe6080604052600436106100dd5760003560e01c806347535d7b1161007f5780638f91eeb4116100595780638f91eeb4146102575780639089c4a514610280578063d7557f18146102ab578063f3f43703146102c2576100dd565b806347535d7b146101f757806388ffe867146102225780638da5cb5b1461022c576100dd565b80632f94dfa3116100bb5780632f94dfa3146101755780633197cbb61461019e5780633ccfd60b146101c95780633edd2d20146101e0576100dd565b80630724fda9146100e2578063208152db1461010d5780632b842d4214610138575b600080fd5b3480156100ee57600080fd5b506100f76102ff565b6040516101049190611224565b60405180910390f35b34801561011957600080fd5b5061012261038d565b60405161012f91906112c6565b60405180910390f35b34801561014457600080fd5b5061015f600480360381019061015a9190610fbc565b610393565b60405161016c91906112c6565b60405180910390f35b34801561018157600080fd5b5061019c60048036038101906101979190610fbc565b6103b0565b005b3480156101aa57600080fd5b506101b3610588565b6040516101c091906112c6565b60405180910390f35b3480156101d557600080fd5b506101de61058e565b005b3480156101ec57600080fd5b506101f5610661565b005b34801561020357600080fd5b5061020c610906565b60405161021991906111ee565b60405180910390f35b61022a610919565b005b34801561023857600080fd5b50610241610b4c565b60405161024e9190611173565b60405180910390f35b34801561026357600080fd5b5061027e60048036038101906102799190611016565b610b72565b005b34801561028c57600080fd5b50610295610cfd565b6040516102a29190611209565b60405180910390f35b3480156102b757600080fd5b506102c0610d23565b005b3480156102ce57600080fd5b506102e960048036038101906102e49190610f62565b610e5a565b6040516102f691906112c6565b60405180910390f35b6002805461030c906114c0565b80601f0160208091040260200160405190810160405280929190818152602001828054610338906114c0565b80156103855780601f1061035a57610100808354040283529160200191610385565b820191906000526020600020905b81548152906001019060200180831161036857829003601f168201915b505050505081565b60005481565b600060066000838152602001908152602001600020549050919050565b600160009054906101000a900473ffffffffffffffffffffffffffffffffffffffff1673ffffffffffffffffffffffffffffffffffffffff163373ffffffffffffffffffffffffffffffffffffffff1614610440576040517f08c379a0000000000000000000000000000000000000000000000000000000008152600401610437906112a6565b60405180910390fd5b600560009054906101000a900473ffffffffffffffffffffffffffffffffffffffff1673ffffffffffffffffffffffffffffffffffffffff1663d045f1e4826040518263ffffffff1660e01b815260040161049b91906112c6565b600060405180830381600087803b1580156104b557600080fd5b505af11580156104c9573d6000803e3d6000fd5b5050505060006006600083815260200190815260200160002054116104ed57600080fd5b600060066000838152602001908152602001600020549050600060066000848152602001908152602001600020819055508060076000600160009054906101000a900473ffffffffffffffffffffffffffffffffffffffff1673ffffffffffffffffffffffffffffffffffffffff1673ffffffffffffffffffffffffffffffffffffffff168152602001908152602001600020819055505050565b60035481565b6000600760003373ffffffffffffffffffffffffffffffffffffffff1673ffffffffffffffffffffffffffffffffffffffff1681526020019081526020016000205490506000600760003373ffffffffffffffffffffffffffffffffffffffff1673ffffffffffffffffffffffffffffffffffffffff168152602001908152602001600020819055503373ffffffffffffffffffffffffffffffffffffffff166108fc829081150290604051600060405180830381858888f1935050505015801561065d573d6000803e3d6000fd5b5050565b600560149054906101000a900460ff1661067a57600080fd5b60035442111561069357600054471061069257600080fd5b5b6000600560009054906101000a900473ffffffffffffffffffffffffffffffffffffffff1673ffffffffffffffffffffffffffffffffffffffff166370a08231336040518263ffffffff1660e01b81526004016106f09190611173565b60206040518083038186803b15801561070857600080fd5b505afa15801561071c573d6000803e3d6000fd5b505050506040513d601f19601f820116820180604052508101906107409190610fe9565b9050600560009054906101000a900473ffffffffffffffffffffffffffffffffffffffff1673ffffffffffffffffffffffffffffffffffffffff166323b872dd3330846040518463ffffffff1660e01b81526004016107a19392919061118e565b602060405180830381600087803b1580156107bb57600080fd5b505af11580156107cf573d6000803e3d6000fd5b505050506040513d601f19601f820116820180604052508101906107f39190610f8f565b5060006108bc600560009054906101000a900473ffffffffffffffffffffffffffffffffffffffff1673ffffffffffffffffffffffffffffffffffffffff166318160ddd6040518163ffffffff1660e01b815260040160206040518083038186803b15801561086157600080fd5b505afa158015610875573d6000803e3d6000fd5b505050506040513d601f19601f820116820180604052508101906108999190610fe9565b6108ae60005485610e7290919063ffffffff16565b610e8890919063ffffffff16565b905080600760003373ffffffffffffffffffffffffffffffffffffffff1673ffffffffffffffffffffffffffffffffffffffff168152602001908152602001600020819055505050565b600560149054906101000a900460ff1681565b600354421061095d576040517f08c379a000000000000000000000000000000000000000000000000000000000815260040161095490611286565b60405180910390fd5b60008054471115610979576000544761097691906113de565b90505b6000813461098791906113de565b90506000610a51600054610a43600560009054906101000a900473ffffffffffffffffffffffffffffffffffffffff1673ffffffffffffffffffffffffffffffffffffffff166318160ddd6040518163ffffffff1660e01b815260040160206040518083038186803b1580156109fc57600080fd5b505afa158015610a10573d6000803e3d6000fd5b505050506040513d601f19601f82011682018060405250810190610a349190610fe9565b85610e7290919063ffffffff16565b610e8890919063ffffffff16565b9050600560009054906101000a900473ffffffffffffffffffffffffffffffffffffffff1673ffffffffffffffffffffffffffffffffffffffff1663a9059cbb33836040518363ffffffff1660e01b8152600401610ab09291906111c5565b602060405180830381600087803b158015610aca57600080fd5b505af1158015610ade573d6000803e3d6000fd5b505050506040513d601f19601f82011682018060405250810190610b029190610f8f565b5082600760003373ffffffffffffffffffffffffffffffffffffffff1673ffffffffffffffffffffffffffffffffffffffff16815260200190815260200160002081905550505050565b600160009054906101000a900473ffffffffffffffffffffffffffffffffffffffff1681565b600160009054906101000a900473ffffffffffffffffffffffffffffffffffffffff1673ffffffffffffffffffffffffffffffffffffffff163373ffffffffffffffffffffffffffffffffffffffff1614610c02576040517f08c379a0000000000000000000000000000000000000000000000000000000008152600401610bf9906112a6565b60405180910390fd5b60001515600560149054906101000a900460ff16151514610c2257600080fd5b47821115610c2f57600080fd5b6000600560009054906101000a900473ffffffffffffffffffffffffffffffffffffffff1673ffffffffffffffffffffffffffffffffffffffff1663326856a0836040518263ffffffff1660e01b8152600401610c8c9190611224565b602060405180830381600087803b158015610ca657600080fd5b505af1158015610cba573d6000803e3d6000fd5b505050506040513d601f19601f82011682018060405250810190610cde9190610fe9565b9050826006600083815260200190815260200160002081905550505050565b600560009054906101000a900473ffffffffffffffffffffffffffffffffffffffff1681565b600160009054906101000a900473ffffffffffffffffffffffffffffffffffffffff1673ffffffffffffffffffffffffffffffffffffffff163373ffffffffffffffffffffffffffffffffffffffff1614610db3576040517f08c379a0000000000000000000000000000000000000000000000000000000008152600401610daa906112a6565b60405180910390fd5b600354421015610df8576040517f08c379a0000000000000000000000000000000000000000000000000000000008152600401610def90611266565b60405180910390fd5b600054471015610e3d576040517f08c379a0000000000000000000000000000000000000000000000000000000008152600401610e3490611246565b60405180910390fd5b6000600560146101000a81548160ff021916908315150217905550565b60076020528060005260406000206000915090505481565b60008183610e809190611384565b905092915050565b60008183610e969190611353565b905092915050565b6000610eb1610eac84611306565b6112e1565b905082815260208101848484011115610ecd57610ecc6115e4565b5b610ed884828561147e565b509392505050565b600081359050610eef816116a8565b92915050565b600081519050610f04816116bf565b92915050565b600082601f830112610f1f57610f1e6115df565b5b8135610f2f848260208601610e9e565b91505092915050565b600081359050610f47816116d6565b92915050565b600081519050610f5c816116d6565b92915050565b600060208284031215610f7857610f776115ee565b5b6000610f8684828501610ee0565b91505092915050565b600060208284031215610fa557610fa46115ee565b5b6000610fb384828501610ef5565b91505092915050565b600060208284031215610fd257610fd16115ee565b5b6000610fe084828501610f38565b91505092915050565b600060208284031215610fff57610ffe6115ee565b5b600061100d84828501610f4d565b91505092915050565b6000806040838503121561102d5761102c6115ee565b5b600061103b85828601610f38565b925050602083013567ffffffffffffffff81111561105c5761105b6115e9565b5b61106885828601610f0a565b9150509250929050565b61107b81611412565b82525050565b61108a81611424565b82525050565b6110998161145a565b82525050565b60006110aa82611337565b6110b48185611342565b93506110c481856020860161148d565b6110cd816115f3565b840191505092915050565b60006110e5600883611342565b91506110f082611604565b602082019050919050565b6000611108600b83611342565b91506111138261162d565b602082019050919050565b600061112b600f83611342565b915061113682611656565b602082019050919050565b600061114e600983611342565b91506111598261167f565b602082019050919050565b61116d81611450565b82525050565b60006020820190506111886000830184611072565b92915050565b60006060820190506111a36000830186611072565b6111b06020830185611072565b6111bd6040830184611164565b949350505050565b60006040820190506111da6000830185611072565b6111e76020830184611164565b9392505050565b60006020820190506112036000830184611081565b92915050565b600060208201905061121e6000830184611090565b92915050565b6000602082019050818103600083015261123e818461109f565b905092915050565b6000602082019050818103600083015261125f816110d8565b9050919050565b6000602082019050818103600083015261127f816110fb565b9050919050565b6000602082019050818103600083015261129f8161111e565b9050919050565b600060208201905081810360008301526112bf81611141565b9050919050565b60006020820190506112db6000830184611164565b92915050565b60006112eb6112fc565b90506112f782826114f2565b919050565b6000604051905090565b600067ffffffffffffffff821115611321576113206115b0565b5b61132a826115f3565b9050602081019050919050565b600081519050919050565b600082825260208201905092915050565b600061135e82611450565b915061136983611450565b92508261137957611378611552565b5b828204905092915050565b600061138f82611450565b915061139a83611450565b9250817fffffffffffffffffffffffffffffffffffffffffffffffffffffffffffffffff04831182151516156113d3576113d2611523565b5b828202905092915050565b60006113e982611450565b91506113f483611450565b92508282101561140757611406611523565b5b828203905092915050565b600061141d82611430565b9050919050565b60008115159050919050565b600073ffffffffffffffffffffffffffffffffffffffff82169050919050565b6000819050919050565b60006114658261146c565b9050919050565b600061147782611430565b9050919050565b82818337600083830152505050565b60005b838110156114ab578082015181840152602081019050611490565b838111156114ba576000848401525b50505050565b600060028204905060018216806114d857607f821691505b602082108114156114ec576114eb611581565b5b50919050565b6114fb826115f3565b810181811067ffffffffffffffff8211171561151a576115196115b0565b5b80604052505050565b7f4e487b7100000000000000000000000000000000000000000000000000000000600052601160045260246000fd5b7f4e487b7100000000000000000000000000000000000000000000000000000000600052601260045260246000fd5b7f4e487b7100000000000000000000000000000000000000000000000000000000600052602260045260246000fd5b7f4e487b7100000000000000000000000000000000000000000000000000000000600052604160045260246000fd5b600080fd5b600080fd5b600080fd5b600080fd5b6000601f19601f8301169050919050565b7f6e6f7420676f616c000000000000000000000000000000000000000000000000600082015250565b7f6e6f742065787069726564000000000000000000000000000000000000000000600082015250565b7f63616d706169676e20636c6f7365640000000000000000000000000000000000600082015250565b7f6e6f74206f776e65720000000000000000000000000000000000000000000000600082015250565b6116b181611412565b81146116bc57600080fd5b50565b6116c881611424565b81146116d357600080fd5b50565b6116df81611450565b81146116ea57600080fd5b5056fea2646970667358221220ad89c35a9aa99eb8964df94013d9a40b004df9c77ce13989faa2e4e3611dacfd64736f6c63430008060033a26469706673582212207df052545a0fe8fcdcae076106cad91ec4c155737f37bc25d4c2f62b755e64e964736f6c63430008060033",
  "immutableReferences": {},
  "source": "// SPDX-License-Identifier: MIT\r\npragma solidity 0.8.6;\r\nimport \"./MyToken.sol\";\r\nimport \"./MyTokenVote.sol\";\r\nimport \"./TokenVote1202.sol\";\r\n\r\nimport \"@openzeppelin/contracts/utils/math/SafeMath.sol\";\r\n\r\ncontract Crowdfund {\r\n    Campaign[] public campaigns;\r\n    MyTokenFactory myTokenFactory;\r\n\r\n    constructor(address myTokenFactoryAddr) {\r\n        myTokenFactory = MyTokenFactory(myTokenFactoryAddr);\r\n    }\r\n\r\n    function createCampaign(string memory _name, uint256 _goalAmt)\r\n        public\r\n        returns (address, uint256)\r\n    {\r\n        Campaign campaign = new Campaign(\r\n            _name,\r\n            _goalAmt,\r\n            msg.sender,\r\n            myTokenFactory\r\n        );\r\n        campaigns.push(campaign);\r\n        return (address(campaign), campaigns.length);\r\n    }\r\n\r\n    function getNumberOfCampaigns() public view returns (uint256) {\r\n        return campaigns.length;\r\n    }\r\n}\r\n\r\ncontract Campaign {\r\n    using SafeMath for uint256;\r\n    uint256 public goalAmt;\r\n    address public owner;\r\n    string public campaignName;\r\n    uint256 public endTime;\r\n    MyTokenFactory myTokenFactory;\r\n    MyToken public campaignToken;\r\n    bool public isOpen;\r\n\r\n    mapping(uint256 => uint256) withdrawBallotAmount;\r\n    mapping(address => uint256) public pendingWithdrawals; /* in wei */\r\n\r\n    constructor(\r\n        string memory _name,\r\n        uint256 _goalAmt,\r\n        address proposer,\r\n        MyTokenFactory myTokenFactoryAddr\r\n    ) payable {\r\n        myTokenFactory = MyTokenFactory(myTokenFactoryAddr);\r\n        endTime = block.timestamp + 300 seconds;\r\n        campaignName = _name;\r\n        owner = proposer;\r\n        goalAmt = _goalAmt;\r\n        campaignToken = myTokenFactory.createMyToken(address(this), 1000000);\r\n        isOpen = true;\r\n    }\r\n\r\n    function pledge() public payable {\r\n        require(block.timestamp < endTime, \"campaign closed\");\r\n        uint256 refundAmt = 0;\r\n        if (address(this).balance > goalAmt) {\r\n            refundAmt = address(this).balance - goalAmt;\r\n        }\r\n        uint256 pledgeAmt = msg.value - refundAmt;\r\n        uint256 tokensToSend = pledgeAmt.mul(campaignToken.totalSupply()).div(\r\n            goalAmt\r\n        );\r\n\r\n        campaignToken.transfer(msg.sender, tokensToSend);\r\n        pendingWithdrawals[msg.sender] = refundAmt;\r\n    }\r\n\r\n    function withdraw() public {\r\n        uint256 amount = pendingWithdrawals[msg.sender];\r\n        pendingWithdrawals[msg.sender] = 0;\r\n        payable(msg.sender).transfer(amount);\r\n    }\r\n\r\n    function unpledge() public {\r\n        require(isOpen);\r\n        if (block.timestamp > endTime) {\r\n            require(address(this).balance < goalAmt);\r\n        }\r\n        uint256 returnedTokens = campaignToken.balanceOf(msg.sender);\r\n        campaignToken.transferFrom(msg.sender, address(this), returnedTokens);\r\n        uint256 refundAmt = returnedTokens.mul(goalAmt).div(\r\n            campaignToken.totalSupply()\r\n        );\r\n        pendingWithdrawals[msg.sender] = refundAmt;\r\n    }\r\n\r\n    function initiateWithdrawProposal(uint256 amt, string memory message)\r\n        public\r\n        onlyOwner\r\n    {\r\n        require(isOpen == false);\r\n        require(amt <= address(this).balance);\r\n        uint256 ballotIndex = campaignToken.createYesNoVote(message);\r\n        withdrawBallotAmount[ballotIndex] = amt;\r\n    }\r\n\r\n    function withdrawFromProposal(uint256 ballotIndex) public onlyOwner {\r\n        // TokenVote1202 ballot = campaignToken.ballots(ballotIndex);\r\n        // require(ballot.winningOption() == 2);\r\n        campaignToken.closeBallot(ballotIndex);\r\n        require(withdrawBallotAmount[ballotIndex] > 0);\r\n        uint256 availableToWithdraw = withdrawBallotAmount[ballotIndex];\r\n        withdrawBallotAmount[ballotIndex] = 0;\r\n        pendingWithdrawals[owner] = availableToWithdraw;\r\n    }\r\n\r\n    function closeCampaign() public onlyOwner {\r\n        require(block.timestamp >= endTime, \"not expired\");\r\n        require(address(this).balance >= goalAmt, \"not goal\");\r\n        isOpen = false;\r\n    }\r\n\r\n    function getProposalAmount(uint256 ballotIndex)\r\n        public\r\n        view\r\n        returns (uint256)\r\n    {\r\n        return withdrawBallotAmount[ballotIndex];\r\n    }\r\n\r\n    modifier requireSucessfulCampaign() {\r\n        require(block.timestamp >= endTime && !isOpen);\r\n        _;\r\n    }\r\n\r\n    modifier onlyOwner() {\r\n        require(msg.sender == owner, \"not owner\");\r\n        _;\r\n    }\r\n}\r\n",
  "sourcePath": "G:/Blockchain/UniqueTelegramToken/erc20/contracts/Crowdfund.sol",
  "compiler": {
    "name": "solc",
    "version": "0.8.6+commit.11564f7e.Emscripten.clang"
  },
  "schemaVersion": "3.4.1",
  "updatedAt": "2021-07-20T08:40:46.891Z",
  "networkType": "ethereum",
  "devdoc": {
    "kind": "dev",
    "methods": {},
    "version": 1
  },
  "userdoc": {
    "kind": "user",
    "methods": {},
    "version": 1
  }
}