{
  "contractName": "MyTokenFactory",
  "abi": [
    {
      "inputs": [
        {
          "internalType": "address",
          "name": "addr",
          "type": "address"
        },
        {
          "internalType": "uint256",
          "name": "initialSupply",
          "type": "uint256"
        }
      ],
      "name": "createMyToken",
      "outputs": [
        {
          "internalType": "contract MyToken",
          "name": "",
          "type": "address"
        }
      ],
      "stateMutability": "nonpayable",
      "type": "function"
    }
  ],
  "bytecode": "0x608060405234801561001057600080fd5b506147f5806100206000396000f3fe60806040523480156200001157600080fd5b50600436106200002e5760003560e01c80639c2dfa0b1462000033575b600080fd5b6200005160048036038101906200004b9190620000ea565b62000069565b60405162000060919062000191565b60405180910390f35b600082826040516200007b90620000ae565b6200008892919062000164565b604051809103906000f080158015620000a5573d6000803e3d6000fd5b50905092915050565b614572806200024e83390190565b600081359050620000cd8162000219565b92915050565b600081359050620000e48162000233565b92915050565b6000806040838503121562000104576200010362000214565b5b60006200011485828601620000bc565b92505060206200012785828601620000d3565b9150509250929050565b6200013c81620001ae565b82525050565b6200014d81620001ec565b82525050565b6200015e81620001e2565b82525050565b60006040820190506200017b600083018562000131565b6200018a602083018462000153565b9392505050565b6000602082019050620001a8600083018462000142565b92915050565b6000620001bb82620001c2565b9050919050565b600073ffffffffffffffffffffffffffffffffffffffff82169050919050565b6000819050919050565b6000620001f98262000200565b9050919050565b60006200020d82620001c2565b9050919050565b600080fd5b6200022481620001ae565b81146200023057600080fd5b50565b6200023e81620001e2565b81146200024a57600080fd5b5056fe608060405260405180604001604052806040518060400160405280600281526020017f6e6f00000000000000000000000000000000000000000000000000000000000081525081526020016040518060400160405280600381526020017f796573000000000000000000000000000000000000000000000000000000000081525081525060089060026200009592919062000687565b50348015620000a357600080fd5b5060405162004572380380620045728339818101604052810190620000c991906200083a565b6040518060400160405280600781526020017f4d79546f6b656e000000000000000000000000000000000000000000000000008152506040518060400160405280600381526020017f4d544b000000000000000000000000000000000000000000000000000000000081525081600390805190602001906200014d929190620006ee565b50806004908051906020019062000166929190620006ee565b5050506200017b8282620001c460201b60201c565b81600960006101000a81548173ffffffffffffffffffffffffffffffffffffffff021916908373ffffffffffffffffffffffffffffffffffffffff160217905550505062000c6c565b600073ffffffffffffffffffffffffffffffffffffffff168273ffffffffffffffffffffffffffffffffffffffff16141562000237576040517f08c379a00000000000000000000000000000000000000000000000000000000081526004016200022e906200094b565b60405180910390fd5b6200024b600083836200033d60201b60201c565b80600260008282546200025f91906200099b565b92505081905550806000808473ffffffffffffffffffffffffffffffffffffffff1673ffffffffffffffffffffffffffffffffffffffff1681526020019081526020016000206000828254620002b691906200099b565b925050819055508173ffffffffffffffffffffffffffffffffffffffff16600073ffffffffffffffffffffffffffffffffffffffff167fddf252ad1be2c89b69c2b068fc378daa952ba7f163c4a11628f55a4df523b3ef836040516200031d91906200096d565b60405180910390a362000339600083836200034260201b60201c565b5050565b505050565b6200035a8383836200047960201b62000c5f1760201c565b600073ffffffffffffffffffffffffffffffffffffffff168273ffffffffffffffffffffffffffffffffffffffff1614158015620003e657508273ffffffffffffffffffffffffffffffffffffffff16600960009054906101000a900473ffffffffffffffffffffffffffffffffffffffff1673ffffffffffffffffffffffffffffffffffffffff1614155b80156200044157508173ffffffffffffffffffffffffffffffffffffffff16600960009054906101000a900473ffffffffffffffffffffffffffffffffffffffff1673ffffffffffffffffffffffffffffffffffffffff1614155b1562000474576200047382620004676064846200047e60201b62000c641790919060201c565b6200049660201b60201c565b5b505050565b505050565b600081836200048e9190620009f8565b905092915050565b600073ffffffffffffffffffffffffffffffffffffffff168273ffffffffffffffffffffffffffffffffffffffff16141562000509576040517f08c379a0000000000000000000000000000000000000000000000000000000008152600401620005009062000929565b60405180910390fd5b6200051d826000836200033d60201b60201c565b60008060008473ffffffffffffffffffffffffffffffffffffffff1673ffffffffffffffffffffffffffffffffffffffff16815260200190815260200160002054905081811015620005a6576040517f08c379a00000000000000000000000000000000000000000000000000000000081526004016200059d9062000907565b60405180910390fd5b8181036000808573ffffffffffffffffffffffffffffffffffffffff1673ffffffffffffffffffffffffffffffffffffffff168152602001908152602001600020819055508160026000828254620005ff919062000a30565b92505081905550600073ffffffffffffffffffffffffffffffffffffffff168373ffffffffffffffffffffffffffffffffffffffff167fddf252ad1be2c89b69c2b068fc378daa952ba7f163c4a11628f55a4df523b3ef846040516200066691906200096d565b60405180910390a362000682836000846200034260201b60201c565b505050565b828054828255906000526020600020908101928215620006db579160200282015b82811115620006da578251829080519060200190620006c9929190620006ee565b5091602001919060010190620006a8565b5b509050620006ea91906200077f565b5090565b828054620006fc9062000aa9565b90600052602060002090601f0160209004810192826200072057600085556200076c565b82601f106200073b57805160ff19168380011785556200076c565b828001600101855582156200076c579182015b828111156200076b5782518255916020019190600101906200074e565b5b5090506200077b9190620007a7565b5090565b5b80821115620007a35760008181620007999190620007c6565b5060010162000780565b5090565b5b80821115620007c2576000816000905550600101620007a8565b5090565b508054620007d49062000aa9565b6000825580601f10620007e8575062000809565b601f016020900490600052602060002090810190620008089190620007a7565b5b50565b6000815190506200081d8162000c38565b92915050565b600081519050620008348162000c52565b92915050565b6000806040838503121562000854576200085362000b6c565b5b600062000864858286016200080c565b9250506020620008778582860162000823565b9150509250929050565b6000620008906022836200098a565b91506200089d8262000b71565b604082019050919050565b6000620008b76021836200098a565b9150620008c48262000bc0565b604082019050919050565b6000620008de601f836200098a565b9150620008eb8262000c0f565b602082019050919050565b620009018162000a9f565b82525050565b60006020820190508181036000830152620009228162000881565b9050919050565b600060208201905081810360008301526200094481620008a8565b9050919050565b600060208201905081810360008301526200096681620008cf565b9050919050565b6000602082019050620009846000830184620008f6565b92915050565b600082825260208201905092915050565b6000620009a88262000a9f565b9150620009b58362000a9f565b9250827fffffffffffffffffffffffffffffffffffffffffffffffffffffffffffffffff03821115620009ed57620009ec62000adf565b5b828201905092915050565b600062000a058262000a9f565b915062000a128362000a9f565b92508262000a255762000a2462000b0e565b5b828204905092915050565b600062000a3d8262000a9f565b915062000a4a8362000a9f565b92508282101562000a605762000a5f62000adf565b5b828203905092915050565b600062000a788262000a7f565b9050919050565b600073ffffffffffffffffffffffffffffffffffffffff82169050919050565b6000819050919050565b6000600282049050600182168062000ac257607f821691505b6020821081141562000ad95762000ad862000b3d565b5b50919050565b7f4e487b7100000000000000000000000000000000000000000000000000000000600052601160045260246000fd5b7f4e487b7100000000000000000000000000000000000000000000000000000000600052601260045260246000fd5b7f4e487b7100000000000000000000000000000000000000000000000000000000600052602260045260246000fd5b600080fd5b7f45524332303a206275726e20616d6f756e7420657863656564732062616c616e60008201527f6365000000000000000000000000000000000000000000000000000000000000602082015250565b7f45524332303a206275726e2066726f6d20746865207a65726f2061646472657360008201527f7300000000000000000000000000000000000000000000000000000000000000602082015250565b7f45524332303a206d696e7420746f20746865207a65726f206164647265737300600082015250565b62000c438162000a6b565b811462000c4f57600080fd5b50565b62000c5d8162000a9f565b811462000c6957600080fd5b50565b6138f68062000c7c6000396000f3fe60806040523480156200001157600080fd5b5060043610620001185760003560e01c80635c632b3811620000a5578063a457c2d7116200006f578063a457c2d71462000341578063a9059cbb1462000377578063d045f1e414620003ad578063dd62ed3e14620003cd5762000118565b80635c632b38146200027d5780635fab1aeb14620002b357806370a0823114620002e957806395d89b41146200031f5762000118565b8063313ce56711620000e7578063313ce56714620001cd578063326856a014620001ef57806339509351146200022557806352e2d6e9146200025b5762000118565b806306fdde03146200011d578063095ea7b3146200013f57806318160ddd146200017557806323b872dd1462000197575b600080fd5b6200012762000403565b60405162000136919062001a5f565b60405180910390f35b6200015d60048036038101906200015791906200159a565b6200049d565b6040516200016c919062001a25565b60405180910390f35b6200017f620004bf565b6040516200018e919062001bf9565b60405180910390f35b620001b56004803603810190620001af91906200153e565b620004c9565b604051620001c4919062001a25565b60405180910390f35b620001d7620005cc565b604051620001e6919062001c16565b60405180910390f35b6200020d600480360381019062000207919062001613565b620005d5565b6040516200021c919062001bf9565b60405180910390f35b6200024360048036038101906200023d91906200159a565b62000704565b60405162000252919062001a25565b60405180910390f35b62000265620007b8565b60405162000274919062001bf9565b60405180910390f35b6200029b600480360381019062000295919062001664565b620007c5565b604051620002aa919062001a42565b60405180910390f35b620002d16004803603810190620002cb919062001664565b62000805565b604051620002e0919062001bf9565b60405180910390f35b620003076004803603810190620003019190620014c5565b6200081d565b60405162000316919062001bf9565b60405180910390f35b6200032962000865565b60405162000338919062001a5f565b60405180910390f35b6200035f60048036038101906200035991906200159a565b620008ff565b6040516200036e919062001a25565b60405180910390f35b6200039560048036038101906200038f91906200159a565b620009f3565b604051620003a4919062001a25565b60405180910390f35b620003cb6004803603810190620003c5919062001664565b62000a15565b005b620003eb6004803603810190620003e59190620014f7565b62000bd8565b604051620003fa919062001bf9565b60405180910390f35b606060038054620004149062001ea6565b80601f0160208091040260200160405190810160405280929190818152602001828054620004429062001ea6565b8015620004935780601f10620004675761010080835404028352916020019162000493565b820191906000526020600020905b8154815290600101906020018083116200047557829003601f168201915b5050505050905090565b6000620004b5620004ad62000c7c565b848462000c84565b6001905092915050565b6000600254905090565b6000620004d884848462000e57565b6000600160008673ffffffffffffffffffffffffffffffffffffffff1673ffffffffffffffffffffffffffffffffffffffff16815260200190815260200160002060006200052562000c7c565b73ffffffffffffffffffffffffffffffffffffffff1673ffffffffffffffffffffffffffffffffffffffff16815260200190815260200160002054905082811015620005a8576040517f08c379a00000000000000000000000000000000000000000000000000000000081526004016200059f9062001b2d565b60405180910390fd5b620005c085620005b762000c7c565b85840362000c84565b60019150509392505050565b60006012905090565b600033600560006101000a81548173ffffffffffffffffffffffffffffffffffffffff021916908373ffffffffffffffffffffffffffffffffffffffff16021790555060006008836040516200062b90620013f4565b62000638929190620019ea565b604051809103906000f08015801562000655573d6000803e3d6000fd5b5090506006819080600181540180825580915050600190039060005260206000200160009091909190916101000a81548173ffffffffffffffffffffffffffffffffffffffff021916908373ffffffffffffffffffffffffffffffffffffffff16021790555060006001600680549050620006d1919062001da7565b905061012c42620006e3919062001d12565b60076000838152602001908152602001600020819055508092505050919050565b6000620007ae6200071462000c7c565b8484600160006200072462000c7c565b73ffffffffffffffffffffffffffffffffffffffff1673ffffffffffffffffffffffffffffffffffffffff16815260200190815260200160002060008873ffffffffffffffffffffffffffffffffffffffff1673ffffffffffffffffffffffffffffffffffffffff16815260200190815260200160002054620007a8919062001d12565b62000c84565b6001905092915050565b6000600680549050905090565b60068181548110620007d657600080fd5b906000526020600020016000915054906101000a900473ffffffffffffffffffffffffffffffffffffffff1681565b60076020528060005260406000206000915090505481565b60008060008373ffffffffffffffffffffffffffffffffffffffff1673ffffffffffffffffffffffffffffffffffffffff168152602001908152602001600020549050919050565b606060048054620008769062001ea6565b80601f0160208091040260200160405190810160405280929190818152602001828054620008a49062001ea6565b8015620008f55780601f10620008c957610100808354040283529160200191620008f5565b820191906000526020600020905b815481529060010190602001808311620008d757829003601f168201915b5050505050905090565b600080600160006200091062000c7c565b73ffffffffffffffffffffffffffffffffffffffff1673ffffffffffffffffffffffffffffffffffffffff16815260200190815260200160002060008573ffffffffffffffffffffffffffffffffffffffff1673ffffffffffffffffffffffffffffffffffffffff16815260200190815260200160002054905082811015620009d0576040517f08c379a0000000000000000000000000000000000000000000000000000000008152600401620009c79062001bd7565b60405180910390fd5b620009e8620009de62000c7c565b8585840362000c84565b600191505092915050565b600062000a0b62000a0362000c7c565b848462000e57565b6001905092915050565b600560009054906101000a900473ffffffffffffffffffffffffffffffffffffffff1673ffffffffffffffffffffffffffffffffffffffff163373ffffffffffffffffffffffffffffffffffffffff161462000aa8576040517f08c379a000000000000000000000000000000000000000000000000000000000815260040162000a9f9062001bb5565b60405180910390fd5b600760008281526020019081526020016000205442101562000b01576040517f08c379a000000000000000000000000000000000000000000000000000000000815260040162000af89062001ae9565b60405180910390fd5b6006818154811062000b185762000b1762001f9f565b5b9060005260206000200160009054906101000a900473ffffffffffffffffffffffffffffffffffffffff1673ffffffffffffffffffffffffffffffffffffffff16635c40f6f460006040518263ffffffff1660e01b815260040162000b7e919062001a25565b602060405180830381600087803b15801562000b9957600080fd5b505af115801562000bae573d6000803e3d6000fd5b505050506040513d601f19601f8201168201806040525081019062000bd49190620015e1565b5050565b6000600160008473ffffffffffffffffffffffffffffffffffffffff1673ffffffffffffffffffffffffffffffffffffffff16815260200190815260200160002060008373ffffffffffffffffffffffffffffffffffffffff1673ffffffffffffffffffffffffffffffffffffffff16815260200190815260200160002054905092915050565b505050565b6000818362000c74919062001d6f565b905092915050565b600033905090565b600073ffffffffffffffffffffffffffffffffffffffff168373ffffffffffffffffffffffffffffffffffffffff16141562000cf7576040517f08c379a000000000000000000000000000000000000000000000000000000000815260040162000cee9062001b93565b60405180910390fd5b600073ffffffffffffffffffffffffffffffffffffffff168273ffffffffffffffffffffffffffffffffffffffff16141562000d6a576040517f08c379a000000000000000000000000000000000000000000000000000000000815260040162000d619062001ac7565b60405180910390fd5b80600160008573ffffffffffffffffffffffffffffffffffffffff1673ffffffffffffffffffffffffffffffffffffffff16815260200190815260200160002060008473ffffffffffffffffffffffffffffffffffffffff1673ffffffffffffffffffffffffffffffffffffffff168152602001908152602001600020819055508173ffffffffffffffffffffffffffffffffffffffff168373ffffffffffffffffffffffffffffffffffffffff167f8c5be1e5ebec7d5bd14f71427d1e84f3dd0314c0f7b2291e5b200ac8c7c3b9258360405162000e4a919062001bf9565b60405180910390a3505050565b600073ffffffffffffffffffffffffffffffffffffffff168373ffffffffffffffffffffffffffffffffffffffff16141562000eca576040517f08c379a000000000000000000000000000000000000000000000000000000000815260040162000ec19062001b71565b60405180910390fd5b600073ffffffffffffffffffffffffffffffffffffffff168273ffffffffffffffffffffffffffffffffffffffff16141562000f3d576040517f08c379a000000000000000000000000000000000000000000000000000000000815260040162000f349062001a83565b60405180910390fd5b62000f4a838383620010e9565b60008060008573ffffffffffffffffffffffffffffffffffffffff1673ffffffffffffffffffffffffffffffffffffffff1681526020019081526020016000205490508181101562000fd3576040517f08c379a000000000000000000000000000000000000000000000000000000000815260040162000fca9062001b0b565b60405180910390fd5b8181036000808673ffffffffffffffffffffffffffffffffffffffff1673ffffffffffffffffffffffffffffffffffffffff16815260200190815260200160002081905550816000808573ffffffffffffffffffffffffffffffffffffffff1673ffffffffffffffffffffffffffffffffffffffff168152602001908152602001600020600082825462001068919062001d12565b925050819055508273ffffffffffffffffffffffffffffffffffffffff168473ffffffffffffffffffffffffffffffffffffffff167fddf252ad1be2c89b69c2b068fc378daa952ba7f163c4a11628f55a4df523b3ef84604051620010ce919062001bf9565b60405180910390a3620010e3848484620010ee565b50505050565b505050565b620010fb83838362000c5f565b600073ffffffffffffffffffffffffffffffffffffffff168273ffffffffffffffffffffffffffffffffffffffff16141580156200118757508273ffffffffffffffffffffffffffffffffffffffff16600960009054906101000a900473ffffffffffffffffffffffffffffffffffffffff1673ffffffffffffffffffffffffffffffffffffffff1614155b8015620011e257508173ffffffffffffffffffffffffffffffffffffffff16600960009054906101000a900473ffffffffffffffffffffffffffffffffffffffff1673ffffffffffffffffffffffffffffffffffffffff1614155b156200120a5762001209826200120360648462000c6490919063ffffffff16565b6200120f565b5b505050565b600073ffffffffffffffffffffffffffffffffffffffff168273ffffffffffffffffffffffffffffffffffffffff16141562001282576040517f08c379a0000000000000000000000000000000000000000000000000000000008152600401620012799062001b4f565b60405180910390fd5b6200129082600083620010e9565b60008060008473ffffffffffffffffffffffffffffffffffffffff1673ffffffffffffffffffffffffffffffffffffffff1681526020019081526020016000205490508181101562001319576040517f08c379a0000000000000000000000000000000000000000000000000000000008152600401620013109062001aa5565b60405180910390fd5b8181036000808573ffffffffffffffffffffffffffffffffffffffff1673ffffffffffffffffffffffffffffffffffffffff16815260200190815260200160002081905550816002600082825462001372919062001da7565b92505081905550600073ffffffffffffffffffffffffffffffffffffffff168373ffffffffffffffffffffffffffffffffffffffff167fddf252ad1be2c89b69c2b068fc378daa952ba7f163c4a11628f55a4df523b3ef84604051620013d9919062001bf9565b60405180910390a3620013ef83600084620010ee565b505050565b611537806200238a83390190565b600062001419620014138462001c5c565b62001c33565b90508281526020810184848401111562001438576200143762002002565b5b6200144584828562001e61565b509392505050565b6000813590506200145e816200233b565b92915050565b600081519050620014758162002355565b92915050565b600082601f83011262001493576200149262001ffd565b5b8135620014a584826020860162001402565b91505092915050565b600081359050620014bf816200236f565b92915050565b600060208284031215620014de57620014dd6200200c565b5b6000620014ee848285016200144d565b91505092915050565b600080604083850312156200151157620015106200200c565b5b600062001521858286016200144d565b925050602062001534858286016200144d565b9150509250929050565b6000806000606084860312156200155a57620015596200200c565b5b60006200156a868287016200144d565b93505060206200157d868287016200144d565b92505060406200159086828701620014ae565b9150509250925092565b60008060408385031215620015b457620015b36200200c565b5b6000620015c4858286016200144d565b9250506020620015d785828601620014ae565b9150509250929050565b600060208284031215620015fa57620015f96200200c565b5b60006200160a8482850162001464565b91505092915050565b6000602082840312156200162c576200162b6200200c565b5b600082013567ffffffffffffffff8111156200164d576200164c62002007565b5b6200165b848285016200147b565b91505092915050565b6000602082840312156200167d576200167c6200200c565b5b60006200168d84828501620014ae565b91505092915050565b6000620016a483836200178f565b905092915050565b6000620016b98262001cbc565b620016c5818562001cdf565b935083602082028501620016d98562001c92565b8060005b858110156200171a57848403895281620016f8858262001696565b9450620017058362001cd2565b925060208a01995050600181019050620016dd565b50829750879550505050505092915050565b620017378162001df6565b82525050565b620017488162001e39565b82525050565b60006200175b8262001cc7565b62001767818562001d01565b93506200177981856020860162001e70565b620017848162002011565b840191505092915050565b600081546200179e8162001ea6565b620017aa818662001cf0565b94506001821660008114620017c85760018114620017db5762001812565b60ff198316865260208601935062001812565b620017e68562001ca7565b60005b838110156200180a57815481890152600182019150602081019050620017e9565b808801955050505b50505092915050565b60006200182a60238362001d01565b9150620018378262002022565b604082019050919050565b60006200185160228362001d01565b91506200185e8262002071565b604082019050919050565b60006200187860228362001d01565b91506200188582620020c0565b604082019050919050565b60006200189f600b8362001d01565b9150620018ac826200210f565b602082019050919050565b6000620018c660268362001d01565b9150620018d38262002138565b604082019050919050565b6000620018ed60288362001d01565b9150620018fa8262002187565b604082019050919050565b60006200191460218362001d01565b91506200192182620021d6565b604082019050919050565b60006200193b60258362001d01565b9150620019488262002225565b604082019050919050565b60006200196260248362001d01565b91506200196f8262002274565b604082019050919050565b60006200198960098362001d01565b91506200199682620022c3565b602082019050919050565b6000620019b060258362001d01565b9150620019bd82620022ec565b604082019050919050565b620019d38162001e22565b82525050565b620019e48162001e2c565b82525050565b6000604082019050818103600083015262001a068185620016ac565b9050818103602083015262001a1c81846200174e565b90509392505050565b600060208201905062001a3c60008301846200172c565b92915050565b600060208201905062001a5960008301846200173d565b92915050565b6000602082019050818103600083015262001a7b81846200174e565b905092915050565b6000602082019050818103600083015262001a9e816200181b565b9050919050565b6000602082019050818103600083015262001ac08162001842565b9050919050565b6000602082019050818103600083015262001ae28162001869565b9050919050565b6000602082019050818103600083015262001b048162001890565b9050919050565b6000602082019050818103600083015262001b2681620018b7565b9050919050565b6000602082019050818103600083015262001b4881620018de565b9050919050565b6000602082019050818103600083015262001b6a8162001905565b9050919050565b6000602082019050818103600083015262001b8c816200192c565b9050919050565b6000602082019050818103600083015262001bae8162001953565b9050919050565b6000602082019050818103600083015262001bd0816200197a565b9050919050565b6000602082019050818103600083015262001bf281620019a1565b9050919050565b600060208201905062001c106000830184620019c8565b92915050565b600060208201905062001c2d6000830184620019d9565b92915050565b600062001c3f62001c52565b905062001c4d828262001edc565b919050565b6000604051905090565b600067ffffffffffffffff82111562001c7a5762001c7962001fce565b5b62001c858262002011565b9050602081019050919050565b60008190508160005260206000209050919050565b60008190508160005260206000209050919050565b600081549050919050565b600081519050919050565b6000600182019050919050565b600082825260208201905092915050565b600082825260208201905092915050565b600082825260208201905092915050565b600062001d1f8262001e22565b915062001d2c8362001e22565b9250827fffffffffffffffffffffffffffffffffffffffffffffffffffffffffffffffff0382111562001d645762001d6362001f12565b5b828201905092915050565b600062001d7c8262001e22565b915062001d898362001e22565b92508262001d9c5762001d9b62001f41565b5b828204905092915050565b600062001db48262001e22565b915062001dc18362001e22565b92508282101562001dd75762001dd662001f12565b5b828203905092915050565b600062001def8262001e02565b9050919050565b60008115159050919050565b600073ffffffffffffffffffffffffffffffffffffffff82169050919050565b6000819050919050565b600060ff82169050919050565b600062001e468262001e4d565b9050919050565b600062001e5a8262001e02565b9050919050565b82818337600083830152505050565b60005b8381101562001e9057808201518184015260208101905062001e73565b8381111562001ea0576000848401525b50505050565b6000600282049050600182168062001ebf57607f821691505b6020821081141562001ed65762001ed562001f70565b5b50919050565b62001ee78262002011565b810181811067ffffffffffffffff8211171562001f095762001f0862001fce565b5b80604052505050565b7f4e487b7100000000000000000000000000000000000000000000000000000000600052601160045260246000fd5b7f4e487b7100000000000000000000000000000000000000000000000000000000600052601260045260246000fd5b7f4e487b7100000000000000000000000000000000000000000000000000000000600052602260045260246000fd5b7f4e487b7100000000000000000000000000000000000000000000000000000000600052603260045260246000fd5b7f4e487b7100000000000000000000000000000000000000000000000000000000600052604160045260246000fd5b600080fd5b600080fd5b600080fd5b600080fd5b6000601f19601f8301169050919050565b7f45524332303a207472616e7366657220746f20746865207a65726f206164647260008201527f6573730000000000000000000000000000000000000000000000000000000000602082015250565b7f45524332303a206275726e20616d6f756e7420657863656564732062616c616e60008201527f6365000000000000000000000000000000000000000000000000000000000000602082015250565b7f45524332303a20617070726f766520746f20746865207a65726f20616464726560008201527f7373000000000000000000000000000000000000000000000000000000000000602082015250565b7f6e6f742065787069726564000000000000000000000000000000000000000000600082015250565b7f45524332303a207472616e7366657220616d6f756e742065786365656473206260008201527f616c616e63650000000000000000000000000000000000000000000000000000602082015250565b7f45524332303a207472616e7366657220616d6f756e742065786365656473206160008201527f6c6c6f77616e6365000000000000000000000000000000000000000000000000602082015250565b7f45524332303a206275726e2066726f6d20746865207a65726f2061646472657360008201527f7300000000000000000000000000000000000000000000000000000000000000602082015250565b7f45524332303a207472616e736665722066726f6d20746865207a65726f20616460008201527f6472657373000000000000000000000000000000000000000000000000000000602082015250565b7f45524332303a20617070726f76652066726f6d20746865207a65726f2061646460008201527f7265737300000000000000000000000000000000000000000000000000000000602082015250565b7f6e6f74206f776e65720000000000000000000000000000000000000000000000600082015250565b7f45524332303a2064656372656173656420616c6c6f77616e63652062656c6f7760008201527f207a65726f000000000000000000000000000000000000000000000000000000602082015250565b620023468162001de2565b81146200235257600080fd5b50565b620023608162001df6565b81146200236c57600080fd5b50565b6200237a8162001e22565b81146200238657600080fd5b5056fe60806040523480156200001157600080fd5b50604051620015373803806200153783398181016040528101906200003791906200039d565b33600260016101000a81548173ffffffffffffffffffffffffffffffffffffffff021916908373ffffffffffffffffffffffffffffffffffffffff1602179055506002825110156200008857600080fd5b6001808160018154018082558091505003906000526020600020505060005b825181101562000122576001838281518110620000c957620000c862000608565b5b60200260200101519080600181540180825580915050600190039060005260206000200160009091909190915090805190602001906200010b929190620001a0565b50808062000119906200055c565b915050620000a7565b5033600660006101000a81548173ffffffffffffffffffffffffffffffffffffffff021916908373ffffffffffffffffffffffffffffffffffffffff1602179055506001600260006101000a81548160ff021916908315150217905550806000908051906020019062000197929190620001a0565b50505062000690565b828054620001ae90620004f0565b90600052602060002090601f016020900481019282620001d257600085556200021e565b82601f10620001ed57805160ff19168380011785556200021e565b828001600101855582156200021e579182015b828111156200021d57825182559160200191906001019062000200565b5b5090506200022d919062000231565b5090565b5b808211156200024c57600081600090555060010162000232565b5090565b60006200026762000261846200044b565b62000422565b905080838252602082019050828560208602820111156200028d576200028c6200066b565b5b60005b85811015620002e257815167ffffffffffffffff811115620002b757620002b662000666565b5b808601620002c689826200036a565b8552602085019450602084019350505060018101905062000290565b5050509392505050565b600062000303620002fd846200047a565b62000422565b90508281526020810184848401111562000322576200032162000670565b5b6200032f848285620004ba565b509392505050565b600082601f8301126200034f576200034e62000666565b5b81516200036184826020860162000250565b91505092915050565b600082601f83011262000382576200038162000666565b5b815162000394848260208601620002ec565b91505092915050565b60008060408385031215620003b757620003b66200067a565b5b600083015167ffffffffffffffff811115620003d857620003d762000675565b5b620003e68582860162000337565b925050602083015167ffffffffffffffff8111156200040a576200040962000675565b5b62000418858286016200036a565b9150509250929050565b60006200042e62000441565b90506200043c828262000526565b919050565b6000604051905090565b600067ffffffffffffffff82111562000469576200046862000637565b5b602082029050602081019050919050565b600067ffffffffffffffff82111562000498576200049762000637565b5b620004a3826200067f565b9050602081019050919050565b6000819050919050565b60005b83811015620004da578082015181840152602081019050620004bd565b83811115620004ea576000848401525b50505050565b600060028204905060018216806200050957607f821691505b6020821081141562000520576200051f620005d9565b5b50919050565b62000531826200067f565b810181811067ffffffffffffffff8211171562000553576200055262000637565b5b80604052505050565b60006200056982620004b0565b91507fffffffffffffffffffffffffffffffffffffffffffffffffffffffffffffffff8214156200059f576200059e620005aa565b5b600182019050919050565b7f4e487b7100000000000000000000000000000000000000000000000000000000600052601160045260246000fd5b7f4e487b7100000000000000000000000000000000000000000000000000000000600052602260045260246000fd5b7f4e487b7100000000000000000000000000000000000000000000000000000000600052603260045260246000fd5b7f4e487b7100000000000000000000000000000000000000000000000000000000600052604160045260246000fd5b600080fd5b600080fd5b600080fd5b600080fd5b600080fd5b6000601f19601f8301169050919050565b610e9780620006a06000396000f3fe608060405234801561001057600080fd5b50600436106100b45760003560e01c80639fde4ef8116100715780639fde4ef8146101b5578063aec2ccae146101d3578063b54c71eb14610203578063b9e16b6514610233578063dc01262614610251578063dd4bc10114610281576100b4565b80630121b93f146100b957806327cf3844146100e957806344b9f341146101195780634e69d560146101495780635c40f6f41461016757806379ed13a714610197575b600080fd5b6100d360048036038101906100ce91906109ab565b6102b1565b6040516100e09190610b6a565b60405180910390f35b61010360048036038101906100fe9190610951565b6104f7565b6040516101109190610ba7565b60405180910390f35b610133600480360381019061012e91906109ab565b61050f565b6040516101409190610ba7565b60405180910390f35b610151610527565b60405161015e9190610b6a565b60405180910390f35b610181600480360381019061017c919061097e565b61053e565b60405161018e9190610b6a565b60405180910390f35b61019f6105f4565b6040516101ac9190610b48565b60405180910390f35b6101bd6106cd565b6040516101ca9190610ba7565b60405180910390f35b6101ed60048036038101906101e89190610951565b610731565b6040516101fa9190610b6a565b60405180910390f35b61021d600480360381019061021891906109ab565b610751565b60405161022a9190610ba7565b60405180910390f35b61023b61076e565b6040516102489190610b85565b60405180910390f35b61026b60048036038101906102669190610951565b610800565b6040516102789190610ba7565b60405180910390f35b61029b60048036038101906102969190610951565b610849565b6040516102a89190610ba7565b60405180910390f35b6000600260009054906101000a900460ff166102cc57600080fd5b60008214156102da57600080fd5b6000600660009054906101000a900473ffffffffffffffffffffffffffffffffffffffff1673ffffffffffffffffffffffffffffffffffffffff166370a08231336040518263ffffffff1660e01b81526004016103379190610b2d565b60206040518083038186803b15801561034f57600080fd5b505afa158015610363573d6000803e3d6000fd5b505050506040513d601f19601f8201168201806040525081019061038791906109d8565b90506000600460003373ffffffffffffffffffffffffffffffffffffffff1673ffffffffffffffffffffffffffffffffffffffff168152602001908152602001600020549050600081141561040557816003600086815260200190815260200160002060008282546103f99190610c28565b9250508190555061045a565b816003600083815260200190815260200160002060008282546104289190610c7e565b92505081905550816003600086815260200190815260200160002060008282546104529190610c28565b925050819055505b83600460003373ffffffffffffffffffffffffffffffffffffffff1673ffffffffffffffffffffffffffffffffffffffff168152602001908152602001600020819055503373ffffffffffffffffffffffffffffffffffffffff167fa9851bf7c64060a1bb8c8c6e89a10c1fb3898337da61ecd2db3ca015ad32ebe0856040516104e49190610ba7565b60405180910390a2600192505050919050565b60046020528060005260406000206000915090505481565b60036020528060005260406000206000915090505481565b6000600260009054906101000a900460ff16905090565b6000600260019054906101000a900473ffffffffffffffffffffffffffffffffffffffff1673ffffffffffffffffffffffffffffffffffffffff163373ffffffffffffffffffffffffffffffffffffffff161461059a57600080fd5b81600260006101000a81548160ff0219169083151502179055507fb32dd91638884ac1012ac9d4a0c8cce44d78ecd091818a79ef9210670f6647f7826040516105e39190610b6a565b60405180910390a160019050919050565b60606001805480602002602001604051908101604052809291908181526020016000905b828210156106c457838290600052602060002001805461063790610d2d565b80601f016020809104026020016040519081016040528092919081815260200182805461066390610d2d565b80156106b05780601f10610685576101008083540402835291602001916106b0565b820191906000526020600020905b81548152906001019060200180831161069357829003601f168201915b505050505081526020019060010190610618565b50505050905090565b6000806000905060005b60018054905081101561072957600360008381526020019081526020016000205460036000838152602001908152602001600020541115610716578091505b808061072190610d5f565b9150506106d7565b508091505090565b60056020528060005260406000206000915054906101000a900460ff1681565b600060036000838152602001908152602001600020549050919050565b60606000805461077d90610d2d565b80601f01602080910402602001604051908101604052809291908181526020018280546107a990610d2d565b80156107f65780601f106107cb576101008083540402835291602001916107f6565b820191906000526020600020905b8154815290600101906020018083116107d957829003601f168201915b5050505050905090565b6000600460008373ffffffffffffffffffffffffffffffffffffffff1673ffffffffffffffffffffffffffffffffffffffff168152602001908152602001600020549050919050565b6000600660009054906101000a900473ffffffffffffffffffffffffffffffffffffffff1673ffffffffffffffffffffffffffffffffffffffff166370a08231836040518263ffffffff1660e01b81526004016108a69190610b2d565b60206040518083038186803b1580156108be57600080fd5b505afa1580156108d2573d6000803e3d6000fd5b505050506040513d601f19601f820116820180604052508101906108f691906109d8565b9050919050565b60008135905061090c81610e1c565b92915050565b60008135905061092181610e33565b92915050565b60008135905061093681610e4a565b92915050565b60008151905061094b81610e4a565b92915050565b60006020828403121561096757610966610e06565b5b6000610975848285016108fd565b91505092915050565b60006020828403121561099457610993610e06565b5b60006109a284828501610912565b91505092915050565b6000602082840312156109c1576109c0610e06565b5b60006109cf84828501610927565b91505092915050565b6000602082840312156109ee576109ed610e06565b5b60006109fc8482850161093c565b91505092915050565b6000610a118383610aac565b905092915050565b610a2281610cb2565b82525050565b6000610a3382610bd2565b610a3d8185610bf5565b935083602082028501610a4f85610bc2565b8060005b85811015610a8b5784840389528151610a6c8582610a05565b9450610a7783610be8565b925060208a01995050600181019050610a53565b50829750879550505050505092915050565b610aa681610cc4565b82525050565b6000610ab782610bdd565b610ac18185610c06565b9350610ad1818560208601610cfa565b610ada81610e0b565b840191505092915050565b6000610af082610bdd565b610afa8185610c17565b9350610b0a818560208601610cfa565b610b1381610e0b565b840191505092915050565b610b2781610cf0565b82525050565b6000602082019050610b426000830184610a19565b92915050565b60006020820190508181036000830152610b628184610a28565b905092915050565b6000602082019050610b7f6000830184610a9d565b92915050565b60006020820190508181036000830152610b9f8184610ae5565b905092915050565b6000602082019050610bbc6000830184610b1e565b92915050565b6000819050602082019050919050565b600081519050919050565b600081519050919050565b6000602082019050919050565b600082825260208201905092915050565b600082825260208201905092915050565b600082825260208201905092915050565b6000610c3382610cf0565b9150610c3e83610cf0565b9250827fffffffffffffffffffffffffffffffffffffffffffffffffffffffffffffffff03821115610c7357610c72610da8565b5b828201905092915050565b6000610c8982610cf0565b9150610c9483610cf0565b925082821015610ca757610ca6610da8565b5b828203905092915050565b6000610cbd82610cd0565b9050919050565b60008115159050919050565b600073ffffffffffffffffffffffffffffffffffffffff82169050919050565b6000819050919050565b60005b83811015610d18578082015181840152602081019050610cfd565b83811115610d27576000848401525b50505050565b60006002820490506001821680610d4557607f821691505b60208210811415610d5957610d58610dd7565b5b50919050565b6000610d6a82610cf0565b91507fffffffffffffffffffffffffffffffffffffffffffffffffffffffffffffffff821415610d9d57610d9c610da8565b5b600182019050919050565b7f4e487b7100000000000000000000000000000000000000000000000000000000600052601160045260246000fd5b7f4e487b7100000000000000000000000000000000000000000000000000000000600052602260045260246000fd5b600080fd5b6000601f19601f8301169050919050565b610e2581610cb2565b8114610e3057600080fd5b50565b610e3c81610cc4565b8114610e4757600080fd5b50565b610e5381610cf0565b8114610e5e57600080fd5b5056fea2646970667358221220d98c0804e24b4a53109a40044c55db1e8cf4b0d06f81574699580d748af6d43964736f6c63430008060033a2646970667358221220fe77d06dde511404abecd811e7cb7314fbc3691b3d1446c78c6769d10b1cab6c64736f6c63430008060033a26469706673582212203e06aaa20b03872ca2a7c0e6f1dc1bfc2e465d7a572cb3d00be96c258a32fa6564736f6c63430008060033",
  "immutableReferences": {},
  "source": "// contracts/MyToken.sol\r\n// SPDX-License-Identifier: MIT\r\npragma solidity 0.8.6;\r\nimport \"@openzeppelin/contracts/token/ERC20/ERC20.sol\";\r\nimport \"@openzeppelin/contracts/utils/math/SafeMath.sol\";\r\nimport \"./MyTokenVote.sol\";\r\n\r\ncontract MyTokenFactory {\r\n    function createMyToken(address addr, uint256 initialSupply) public returns(MyToken) {\r\n        return new MyToken(addr, initialSupply);\r\n    }\r\n}\r\n\r\ncontract MyToken is ERC20, MyTokenVote {\r\n    using SafeMath for uint256;\r\n\r\n    address minter;\r\n    constructor(address addr, uint256 initialSupply) ERC20(\"MyToken\", \"MTK\") {\r\n        _mint(addr, initialSupply);\r\n        minter = addr;\r\n    }\r\n\r\n    function _afterTokenTransfer(\r\n        address from,\r\n        address to,\r\n        uint256 amount\r\n    ) internal virtual override {\r\n        super._afterTokenTransfer(from, to, amount);\r\n        if (to != address(0) && minter != from && minter != to ) _burn(to, amount.div(100));\r\n    }\r\n}\r\n",
  "sourcePath": "G:\\Blockchain\\UniqueTelegramToken\\erc20\\contracts\\MyToken.sol",
  "compiler": {
    "name": "solc",
    "version": "0.8.6+commit.11564f7e.Emscripten.clang"
  },
  "schemaVersion": "3.4.1",
  "updatedAt": "2021-07-20T08:40:46.885Z",
  "networkType": "ethereum",
  "devdoc": {
    "kind": "dev",
    "methods": {},
    "version": 1
  },
  "userdoc": {
    "kind": "user",
    "methods": {},
    "version": 1
  }
}