{
  "contractName": "TokenVote1202",
  "abi": [
    {
      "inputs": [
        {
          "internalType": "string[]",
          "name": "_options",
          "type": "string[]"
        },
        {
          "internalType": "string",
          "name": "_issue",
          "type": "string"
        }
      ],
      "stateMutability": "nonpayable",
      "type": "constructor"
    },
    {
      "anonymous": false,
      "inputs": [
        {
          "indexed": false,
          "internalType": "string",
          "name": "msg",
          "type": "string"
        }
      ],
      "name": "DebugMsg",
      "type": "event"
    },
    {
      "anonymous": false,
      "inputs": [
        {
          "indexed": false,
          "internalType": "bool",
          "name": "newIsOpen",
          "type": "bool"
        }
      ],
      "name": "OnStatusChange",
      "type": "event"
    },
    {
      "anonymous": false,
      "inputs": [
        {
          "indexed": true,
          "internalType": "address",
          "name": "_from",
          "type": "address"
        },
        {
          "indexed": false,
          "internalType": "uint256",
          "name": "_value",
          "type": "uint256"
        }
      ],
      "name": "OnVote",
      "type": "event"
    },
    {
      "inputs": [
        {
          "internalType": "address",
          "name": "",
          "type": "address"
        }
      ],
      "name": "ballots",
      "outputs": [
        {
          "internalType": "uint256",
          "name": "",
          "type": "uint256"
        }
      ],
      "stateMutability": "view",
      "type": "function"
    },
    {
      "inputs": [
        {
          "internalType": "address",
          "name": "",
          "type": "address"
        }
      ],
      "name": "voted",
      "outputs": [
        {
          "internalType": "bool",
          "name": "",
          "type": "bool"
        }
      ],
      "stateMutability": "view",
      "type": "function"
    },
    {
      "inputs": [
        {
          "internalType": "uint256",
          "name": "",
          "type": "uint256"
        }
      ],
      "name": "weightedVoteCounts",
      "outputs": [
        {
          "internalType": "uint256",
          "name": "",
          "type": "uint256"
        }
      ],
      "stateMutability": "view",
      "type": "function"
    },
    {
      "inputs": [
        {
          "internalType": "uint256",
          "name": "option",
          "type": "uint256"
        }
      ],
      "name": "vote",
      "outputs": [
        {
          "internalType": "bool",
          "name": "success",
          "type": "bool"
        }
      ],
      "stateMutability": "nonpayable",
      "type": "function"
    },
    {
      "inputs": [
        {
          "internalType": "bool",
          "name": "isOpen_",
          "type": "bool"
        }
      ],
      "name": "setStatus",
      "outputs": [
        {
          "internalType": "bool",
          "name": "success",
          "type": "bool"
        }
      ],
      "stateMutability": "nonpayable",
      "type": "function"
    },
    {
      "inputs": [
        {
          "internalType": "address",
          "name": "addr",
          "type": "address"
        }
      ],
      "name": "ballotOf",
      "outputs": [
        {
          "internalType": "uint256",
          "name": "option",
          "type": "uint256"
        }
      ],
      "stateMutability": "view",
      "type": "function"
    },
    {
      "inputs": [
        {
          "internalType": "address",
          "name": "addr",
          "type": "address"
        }
      ],
      "name": "weightOf",
      "outputs": [
        {
          "internalType": "uint256",
          "name": "weight",
          "type": "uint256"
        }
      ],
      "stateMutability": "view",
      "type": "function"
    },
    {
      "inputs": [],
      "name": "getStatus",
      "outputs": [
        {
          "internalType": "bool",
          "name": "isOpen_",
          "type": "bool"
        }
      ],
      "stateMutability": "view",
      "type": "function"
    },
    {
      "inputs": [
        {
          "internalType": "uint256",
          "name": "option",
          "type": "uint256"
        }
      ],
      "name": "weightedVoteCountsOf",
      "outputs": [
        {
          "internalType": "uint256",
          "name": "count",
          "type": "uint256"
        }
      ],
      "stateMutability": "view",
      "type": "function"
    },
    {
      "inputs": [],
      "name": "winningOption",
      "outputs": [
        {
          "internalType": "uint256",
          "name": "option",
          "type": "uint256"
        }
      ],
      "stateMutability": "view",
      "type": "function"
    },
    {
      "inputs": [],
      "name": "issueDescription",
      "outputs": [
        {
          "internalType": "string",
          "name": "desc",
          "type": "string"
        }
      ],
      "stateMutability": "view",
      "type": "function"
    },
    {
      "inputs": [],
      "name": "availableOptions",
      "outputs": [
        {
          "internalType": "string[]",
          "name": "options_",
          "type": "string[]"
        }
      ],
      "stateMutability": "view",
      "type": "function"
    }
  ],
  "bytecode": "0x60806040523480156200001157600080fd5b50604051620015373803806200153783398181016040528101906200003791906200039d565b33600260016101000a81548173ffffffffffffffffffffffffffffffffffffffff021916908373ffffffffffffffffffffffffffffffffffffffff1602179055506002825110156200008857600080fd5b6001808160018154018082558091505003906000526020600020505060005b825181101562000122576001838281518110620000c957620000c862000608565b5b60200260200101519080600181540180825580915050600190039060005260206000200160009091909190915090805190602001906200010b929190620001a0565b50808062000119906200055c565b915050620000a7565b5033600660006101000a81548173ffffffffffffffffffffffffffffffffffffffff021916908373ffffffffffffffffffffffffffffffffffffffff1602179055506001600260006101000a81548160ff021916908315150217905550806000908051906020019062000197929190620001a0565b50505062000690565b828054620001ae90620004f0565b90600052602060002090601f016020900481019282620001d257600085556200021e565b82601f10620001ed57805160ff19168380011785556200021e565b828001600101855582156200021e579182015b828111156200021d57825182559160200191906001019062000200565b5b5090506200022d919062000231565b5090565b5b808211156200024c57600081600090555060010162000232565b5090565b60006200026762000261846200044b565b62000422565b905080838252602082019050828560208602820111156200028d576200028c6200066b565b5b60005b85811015620002e257815167ffffffffffffffff811115620002b757620002b662000666565b5b808601620002c689826200036a565b8552602085019450602084019350505060018101905062000290565b5050509392505050565b600062000303620002fd846200047a565b62000422565b90508281526020810184848401111562000322576200032162000670565b5b6200032f848285620004ba565b509392505050565b600082601f8301126200034f576200034e62000666565b5b81516200036184826020860162000250565b91505092915050565b600082601f83011262000382576200038162000666565b5b815162000394848260208601620002ec565b91505092915050565b60008060408385031215620003b757620003b66200067a565b5b600083015167ffffffffffffffff811115620003d857620003d762000675565b5b620003e68582860162000337565b925050602083015167ffffffffffffffff8111156200040a576200040962000675565b5b62000418858286016200036a565b9150509250929050565b60006200042e62000441565b90506200043c828262000526565b919050565b6000604051905090565b600067ffffffffffffffff82111562000469576200046862000637565b5b602082029050602081019050919050565b600067ffffffffffffffff82111562000498576200049762000637565b5b620004a3826200067f565b9050602081019050919050565b6000819050919050565b60005b83811015620004da578082015181840152602081019050620004bd565b83811115620004ea576000848401525b50505050565b600060028204905060018216806200050957607f821691505b6020821081141562000520576200051f620005d9565b5b50919050565b62000531826200067f565b810181811067ffffffffffffffff8211171562000553576200055262000637565b5b80604052505050565b60006200056982620004b0565b91507fffffffffffffffffffffffffffffffffffffffffffffffffffffffffffffffff8214156200059f576200059e620005aa565b5b600182019050919050565b7f4e487b7100000000000000000000000000000000000000000000000000000000600052601160045260246000fd5b7f4e487b7100000000000000000000000000000000000000000000000000000000600052602260045260246000fd5b7f4e487b7100000000000000000000000000000000000000000000000000000000600052603260045260246000fd5b7f4e487b7100000000000000000000000000000000000000000000000000000000600052604160045260246000fd5b600080fd5b600080fd5b600080fd5b600080fd5b600080fd5b6000601f19601f8301169050919050565b610e9780620006a06000396000f3fe608060405234801561001057600080fd5b50600436106100b45760003560e01c80639fde4ef8116100715780639fde4ef8146101b5578063aec2ccae146101d3578063b54c71eb14610203578063b9e16b6514610233578063dc01262614610251578063dd4bc10114610281576100b4565b80630121b93f146100b957806327cf3844146100e957806344b9f341146101195780634e69d560146101495780635c40f6f41461016757806379ed13a714610197575b600080fd5b6100d360048036038101906100ce91906109ab565b6102b1565b6040516100e09190610b6a565b60405180910390f35b61010360048036038101906100fe9190610951565b6104f7565b6040516101109190610ba7565b60405180910390f35b610133600480360381019061012e91906109ab565b61050f565b6040516101409190610ba7565b60405180910390f35b610151610527565b60405161015e9190610b6a565b60405180910390f35b610181600480360381019061017c919061097e565b61053e565b60405161018e9190610b6a565b60405180910390f35b61019f6105f4565b6040516101ac9190610b48565b60405180910390f35b6101bd6106cd565b6040516101ca9190610ba7565b60405180910390f35b6101ed60048036038101906101e89190610951565b610731565b6040516101fa9190610b6a565b60405180910390f35b61021d600480360381019061021891906109ab565b610751565b60405161022a9190610ba7565b60405180910390f35b61023b61076e565b6040516102489190610b85565b60405180910390f35b61026b60048036038101906102669190610951565b610800565b6040516102789190610ba7565b60405180910390f35b61029b60048036038101906102969190610951565b610849565b6040516102a89190610ba7565b60405180910390f35b6000600260009054906101000a900460ff166102cc57600080fd5b60008214156102da57600080fd5b6000600660009054906101000a900473ffffffffffffffffffffffffffffffffffffffff1673ffffffffffffffffffffffffffffffffffffffff166370a08231336040518263ffffffff1660e01b81526004016103379190610b2d565b60206040518083038186803b15801561034f57600080fd5b505afa158015610363573d6000803e3d6000fd5b505050506040513d601f19601f8201168201806040525081019061038791906109d8565b90506000600460003373ffffffffffffffffffffffffffffffffffffffff1673ffffffffffffffffffffffffffffffffffffffff168152602001908152602001600020549050600081141561040557816003600086815260200190815260200160002060008282546103f99190610c28565b9250508190555061045a565b816003600083815260200190815260200160002060008282546104289190610c7e565b92505081905550816003600086815260200190815260200160002060008282546104529190610c28565b925050819055505b83600460003373ffffffffffffffffffffffffffffffffffffffff1673ffffffffffffffffffffffffffffffffffffffff168152602001908152602001600020819055503373ffffffffffffffffffffffffffffffffffffffff167fa9851bf7c64060a1bb8c8c6e89a10c1fb3898337da61ecd2db3ca015ad32ebe0856040516104e49190610ba7565b60405180910390a2600192505050919050565b60046020528060005260406000206000915090505481565b60036020528060005260406000206000915090505481565b6000600260009054906101000a900460ff16905090565b6000600260019054906101000a900473ffffffffffffffffffffffffffffffffffffffff1673ffffffffffffffffffffffffffffffffffffffff163373ffffffffffffffffffffffffffffffffffffffff161461059a57600080fd5b81600260006101000a81548160ff0219169083151502179055507fb32dd91638884ac1012ac9d4a0c8cce44d78ecd091818a79ef9210670f6647f7826040516105e39190610b6a565b60405180910390a160019050919050565b60606001805480602002602001604051908101604052809291908181526020016000905b828210156106c457838290600052602060002001805461063790610d2d565b80601f016020809104026020016040519081016040528092919081815260200182805461066390610d2d565b80156106b05780601f10610685576101008083540402835291602001916106b0565b820191906000526020600020905b81548152906001019060200180831161069357829003601f168201915b505050505081526020019060010190610618565b50505050905090565b6000806000905060005b60018054905081101561072957600360008381526020019081526020016000205460036000838152602001908152602001600020541115610716578091505b808061072190610d5f565b9150506106d7565b508091505090565b60056020528060005260406000206000915054906101000a900460ff1681565b600060036000838152602001908152602001600020549050919050565b60606000805461077d90610d2d565b80601f01602080910402602001604051908101604052809291908181526020018280546107a990610d2d565b80156107f65780601f106107cb576101008083540402835291602001916107f6565b820191906000526020600020905b8154815290600101906020018083116107d957829003601f168201915b5050505050905090565b6000600460008373ffffffffffffffffffffffffffffffffffffffff1673ffffffffffffffffffffffffffffffffffffffff168152602001908152602001600020549050919050565b6000600660009054906101000a900473ffffffffffffffffffffffffffffffffffffffff1673ffffffffffffffffffffffffffffffffffffffff166370a08231836040518263ffffffff1660e01b81526004016108a69190610b2d565b60206040518083038186803b1580156108be57600080fd5b505afa1580156108d2573d6000803e3d6000fd5b505050506040513d601f19601f820116820180604052508101906108f691906109d8565b9050919050565b60008135905061090c81610e1c565b92915050565b60008135905061092181610e33565b92915050565b60008135905061093681610e4a565b92915050565b60008151905061094b81610e4a565b92915050565b60006020828403121561096757610966610e06565b5b6000610975848285016108fd565b91505092915050565b60006020828403121561099457610993610e06565b5b60006109a284828501610912565b91505092915050565b6000602082840312156109c1576109c0610e06565b5b60006109cf84828501610927565b91505092915050565b6000602082840312156109ee576109ed610e06565b5b60006109fc8482850161093c565b91505092915050565b6000610a118383610aac565b905092915050565b610a2281610cb2565b82525050565b6000610a3382610bd2565b610a3d8185610bf5565b935083602082028501610a4f85610bc2565b8060005b85811015610a8b5784840389528151610a6c8582610a05565b9450610a7783610be8565b925060208a01995050600181019050610a53565b50829750879550505050505092915050565b610aa681610cc4565b82525050565b6000610ab782610bdd565b610ac18185610c06565b9350610ad1818560208601610cfa565b610ada81610e0b565b840191505092915050565b6000610af082610bdd565b610afa8185610c17565b9350610b0a818560208601610cfa565b610b1381610e0b565b840191505092915050565b610b2781610cf0565b82525050565b6000602082019050610b426000830184610a19565b92915050565b60006020820190508181036000830152610b628184610a28565b905092915050565b6000602082019050610b7f6000830184610a9d565b92915050565b60006020820190508181036000830152610b9f8184610ae5565b905092915050565b6000602082019050610bbc6000830184610b1e565b92915050565b6000819050602082019050919050565b600081519050919050565b600081519050919050565b6000602082019050919050565b600082825260208201905092915050565b600082825260208201905092915050565b600082825260208201905092915050565b6000610c3382610cf0565b9150610c3e83610cf0565b9250827fffffffffffffffffffffffffffffffffffffffffffffffffffffffffffffffff03821115610c7357610c72610da8565b5b828201905092915050565b6000610c8982610cf0565b9150610c9483610cf0565b925082821015610ca757610ca6610da8565b5b828203905092915050565b6000610cbd82610cd0565b9050919050565b60008115159050919050565b600073ffffffffffffffffffffffffffffffffffffffff82169050919050565b6000819050919050565b60005b83811015610d18578082015181840152602081019050610cfd565b83811115610d27576000848401525b50505050565b60006002820490506001821680610d4557607f821691505b60208210811415610d5957610d58610dd7565b5b50919050565b6000610d6a82610cf0565b91507fffffffffffffffffffffffffffffffffffffffffffffffffffffffffffffffff821415610d9d57610d9c610da8565b5b600182019050919050565b7f4e487b7100000000000000000000000000000000000000000000000000000000600052601160045260246000fd5b7f4e487b7100000000000000000000000000000000000000000000000000000000600052602260045260246000fd5b600080fd5b6000601f19601f8301169050919050565b610e2581610cb2565b8114610e3057600080fd5b50565b610e3c81610cc4565b8114610e4757600080fd5b50565b610e5381610cf0565b8114610e5e57600080fd5b5056fea2646970667358221220d98c0804e24b4a53109a40044c55db1e8cf4b0d06f81574699580d748af6d43964736f6c63430008060033",
  "immutableReferences": {},
  "source": "// SPDX-License-Identifier: MIT\r\npragma solidity 0.8.6;\r\nimport \"./MyToken.sol\";\r\n\r\ncontract TokenVote1202 {\r\n    string internal issue;\r\n    string[] internal options;\r\n    bool internal isOpen;\r\n    address Owner;\r\n    mapping(uint256 => uint256) public weightedVoteCounts;\r\n    mapping(address => uint256) public ballots;\r\n    mapping(address => bool) public voted;\r\n    MyToken token;\r\n\r\n    constructor(string[] memory _options, string memory _issue) {\r\n        Owner = msg.sender;\r\n        require(_options.length >= 2);\r\n        options.push();\r\n        for (uint256 i = 0; i < _options.length; i++) {\r\n            options.push(_options[i]);\r\n        }\r\n        token = MyToken(address(msg.sender));\r\n        isOpen = true;\r\n        issue = _issue;\r\n    }\r\n\r\n    function vote(uint256 option) public returns (bool success) {\r\n        require(isOpen);\r\n        // TODO check if option is valid\r\n        require(option != 0);\r\n        uint256 weight = token.balanceOf(msg.sender);\r\n        uint256 previousVote = ballots[msg.sender];\r\n        if (previousVote == 0) {\r\n            weightedVoteCounts[option] += weight; // initial value is zero\r\n        } else {\r\n            weightedVoteCounts[previousVote] -= weight;\r\n            weightedVoteCounts[option] += weight; // initial value is zero\r\n        }\r\n        ballots[msg.sender] = option;\r\n        emit OnVote(msg.sender, option);\r\n        return true;\r\n    }\r\n\r\n    function setStatus(bool isOpen_) public returns (bool success) {\r\n        // Should have a sense of ownership. Only Owner should be able to set the status\r\n        require(msg.sender == Owner);\r\n        isOpen = isOpen_;\r\n        emit OnStatusChange(isOpen_);\r\n        return true;\r\n    }\r\n\r\n    function ballotOf(address addr) public view returns (uint256 option) {\r\n        return ballots[addr];\r\n    }\r\n\r\n    function weightOf(address addr) public view returns (uint256 weight) {\r\n        return token.balanceOf(addr);\r\n    }\r\n\r\n    function getStatus() public view returns (bool isOpen_) {\r\n        return isOpen;\r\n    }\r\n\r\n    function weightedVoteCountsOf(uint256 option)\r\n        public\r\n        view\r\n        returns (uint256 count)\r\n    {\r\n        return weightedVoteCounts[option];\r\n    }\r\n\r\n    function winningOption() public view returns (uint256 option) {\r\n        uint256 ci = 0;\r\n        for (uint256 i = 0; i < options.length; i++) {\r\n            if (weightedVoteCounts[i] > weightedVoteCounts[ci]) {\r\n                ci = i;\r\n            } // else keep it there\r\n        }\r\n        return ci;\r\n    }\r\n\r\n    function issueDescription() public view returns (string memory desc) {\r\n        return issue;\r\n    }\r\n\r\n    function availableOptions() public view returns (string[] memory options_) {\r\n        return options;\r\n    }\r\n\r\n    event OnVote(address indexed _from, uint256 _value);\r\n    event OnStatusChange(bool newIsOpen);\r\n    event DebugMsg(string msg);\r\n}\r\n",
  "sourcePath": "G:\\Blockchain\\UniqueTelegramToken\\erc20\\contracts\\TokenVote1202.sol",
  "compiler": {
    "name": "solc",
    "version": "0.8.6+commit.11564f7e.Emscripten.clang"
  },
  "schemaVersion": "3.4.1",
  "updatedAt": "2021-07-20T08:40:43.391Z",
  "devdoc": {
    "kind": "dev",
    "methods": {},
    "version": 1
  },
  "userdoc": {
    "kind": "user",
    "methods": {},
    "version": 1
  }
}